{"contracts/TechnoLimeStore.sol":{"TechnoLimeStore":{"abi":[{"inputs":[],"stateMutability":"nonpayable","type":"constructor"},{"anonymous":false,"inputs":[{"indexed":false,"internalType":"uint256","name":"id","type":"uint256"},{"indexed":false,"internalType":"uint256","name":"quantity","type":"uint256"}],"name":"ProductCreated","type":"event"},{"anonymous":false,"inputs":[{"indexed":false,"internalType":"uint256","name":"id","type":"uint256"},{"indexed":false,"internalType":"address","name":"buyer","type":"address"}],"name":"ProductPurchased","type":"event"},{"anonymous":false,"inputs":[{"indexed":false,"internalType":"uint256","name":"id","type":"uint256"},{"indexed":false,"internalType":"address","name":"buyer","type":"address"}],"name":"ProductReturned","type":"event"},{"anonymous":false,"inputs":[{"indexed":false,"internalType":"uint256","name":"id","type":"uint256"},{"indexed":false,"internalType":"uint256","name":"quantity","type":"uint256"}],"name":"ProductUpdated","type":"event"},{"inputs":[],"name":"admin","outputs":[{"internalType":"address","name":"","type":"address"}],"stateMutability":"view","type":"function"},{"inputs":[{"internalType":"uint256","name":"_id","type":"uint256"}],"name":"buyProduct","outputs":[],"stateMutability":"payable","type":"function"},{"inputs":[],"name":"buyer","outputs":[{"internalType":"address payable","name":"","type":"address"}],"stateMutability":"view","type":"function"},{"inputs":[{"internalType":"uint256","name":"_id","type":"uint256"},{"internalType":"uint256","name":"_quantity","type":"uint256"}],"name":"createOrUpdateProduct","outputs":[],"stateMutability":"nonpayable","type":"function"},{"inputs":[{"internalType":"uint256","name":"_id","type":"uint256"}],"name":"getAddressOfProductBuyers","outputs":[{"internalType":"address[]","name":"","type":"address[]"}],"stateMutability":"view","type":"function"},{"inputs":[],"name":"getContractBalance","outputs":[{"internalType":"uint256","name":"","type":"uint256"}],"stateMutability":"view","type":"function"},{"inputs":[],"name":"getProductsIds","outputs":[{"internalType":"uint256[]","name":"","type":"uint256[]"}],"stateMutability":"view","type":"function"},{"inputs":[],"name":"getProductsQuantities","outputs":[{"internalType":"uint256[]","name":"","type":"uint256[]"}],"stateMutability":"view","type":"function"},{"inputs":[{"internalType":"uint256","name":"_id","type":"uint256"}],"name":"returnProduct","outputs":[],"stateMutability":"nonpayable","type":"function"}],"evm":{"bytecode":{"linkReferences":{},"object":"60a06040526001600060166101000a81548160ff0219169083151502179055503480156200002c57600080fd5b5062000049678fc3653bc748e5c960c01b6200014060201b60201c565b6200006567838bce073f0c0c9e60c01b6200014060201b60201c565b3373ffffffffffffffffffffffffffffffffffffffff1660808173ffffffffffffffffffffffffffffffffffffffff1681525050620000b567f7929afdbb6f5b4960c01b6200014060201b60201c565b620000d1679c25a78aa465931f60c01b6200014060201b60201c565b60066040518060600160405280600181526020016001815260200160018152509080600181540180825580915050600190039060005260206000209060030201600090919091909150600082015181600001556020820151816001015560408201518160020155505062000143565b50565b6080516131026200016660003960008181611ad401526124b601526131026000f3fe6080604052600436106100865760003560e01c80638642269e116100595780638642269e14610135578063b04eca7614610151578063b110410d1461017a578063df23a026146101b7578063f851a440146101e257610086565b8063131e407d1461008b5780636f9fb98a146100b45780637150d8ae146100df5780637ebc0a821461010a575b600080fd5b34801561009757600080fd5b506100b260048036038101906100ad9190612680565b61020d565b005b3480156100c057600080fd5b506100c9610d57565b6040516100d691906126bc565b60405180910390f35b3480156100eb57600080fd5b506100f4610d9b565b6040516101019190612718565b60405180910390f35b34801561011657600080fd5b5061011f610dbf565b60405161012c91906127f1565b60405180910390f35b61014f600480360381019061014a9190612680565b610f79565b005b34801561015d57600080fd5b5061017860048036038101906101739190612813565b611a6e565b005b34801561018657600080fd5b506101a1600480360381019061019c9190612680565b6120eb565b6040516101ae9190612923565b60405180910390f35b3480156101c357600080fd5b506101cc6122f9565b6040516101d991906127f1565b60405180910390f35b3480156101ee57600080fd5b506101f76124b4565b6040516102049190612954565b60405180910390f35b61022167ec526628a8430aae60c01b6124d8565b61023567a71b114d54baccd260c01b6124d8565b6102496780d3a7267ba4a19560c01b6124d8565b336000806101000a81548173ffffffffffffffffffffffffffffffffffffffff021916908373ffffffffffffffffffffffffffffffffffffffff16021790555061029d67d835bac6c510895b60c01b6124d8565b6102b167688e4eee57f2fa5c60c01b6124d8565b6102c5673fd3ed91495f0edc60c01b6124d8565b806102da67e98c13e01dffc61160c01b6124d8565b6102ee67a2d538f9c37ea36460c01b6124d8565b6001600060166101000a81548160ff02191690831515021790555061031d676d611c191f86fd2760c01b6124d8565b61033167637c22662bc7331e60c01b6124d8565b60005b600760008060009054906101000a900473ffffffffffffffffffffffffffffffffffffffff1673ffffffffffffffffffffffffffffffffffffffff1673ffffffffffffffffffffffffffffffffffffffff168152602001908152602001600020805490508110156104d4576103b3670b1a137af7982c2c60c01b6124d8565b6103c767b5e32379fb252d7560c01b6124d8565b81600760008060009054906101000a900473ffffffffffffffffffffffffffffffffffffffff1673ffffffffffffffffffffffffffffffffffffffff1673ffffffffffffffffffffffffffffffffffffffff168152602001908152602001600020828154811061043a5761043961296f565b5b9060005260206000200154036104ac5761045e67e337af49dd61432d60c01b6124d8565b61047267d5b7aefcdf882b9f60c01b6124d8565b60008060166101000a81548160ff0219169083151502179055506104a067c14dadd2bc0f064960c01b6124d8565b806002819055506104c1565b6104c067a1de23c31546a49b60c01b6124d8565b5b80806104cc906129cd565b915050610334565b506104e9672bd95160b81325ed60c01b6124d8565b6104fd6763c40bf9aade96b360c01b6124d8565b610511670b067a5c0ede1ee860c01b6124d8565b81610526671b63d913fe4bef2060c01b6124d8565b61053a673206e4713cdaea3d60c01b6124d8565b60008060146101000a81548160ff02191690831515021790555061056867db5101f1cb1b6a4360c01b6124d8565b61057c67e517f19857aaf4ec60c01b6124d8565b60005b60068054905081101561067e576105a0678175027f9e5d788560c01b6124d8565b6105b467e7bb409859720f9d60c01b6124d8565b81600682815481106105c9576105c861296f565b5b90600052602060002090600302016000015403610657576105f467b8d932b944dae3e560c01b6124d8565b610608675e245b165053ec0f60c01b6124d8565b8060018190555061062367667b42c414c4057860c01b6124d8565b6001600060146101000a81548160ff02191690831515021790555061065267375adee4e6e30e0360c01b6124d8565b61067e565b61066b67d5d125137d0c60f560c01b6124d8565b8080610676906129cd565b91505061057f565b5061069367089796e9c26151e460c01b6124d8565b6106a7671f3eff2057bfa35a60c01b6124d8565b6106bb6765c21a98a9acc24960c01b6124d8565b6106cf6770194d26ef00dce160c01b6124d8565b6106e36785afb7c7cd5b764d60c01b6124d8565b6106f767f607f2948c06011c60c01b6124d8565b600060169054906101000a900460ff1615610747576040517f08c379a000000000000000000000000000000000000000000000000000000000815260040161073e90612a72565b60405180910390fd5b61075b67d8dcc5e35adc2f0b60c01b6124d8565b61076f678f99fb063be527e960c01b6124d8565b61078367e5ba9aa9ac4302f060c01b6124d8565b600042905061079c670423acf0e82b4f6760c01b6124d8565b6107b0670a7424eb27baf28c60c01b6124d8565b60006009600086815260200190815260200160002054826107d19190612a92565b90506107e7678f1f5c4e5efb191960c01b6124d8565b6107fb67f11f96c8cfac225060c01b6124d8565b61080f67b93938b93756d4d160c01b6124d8565b60648110610852576040517f08c379a000000000000000000000000000000000000000000000000000000000815260040161084990612b38565b60405180910390fd5b6108666797549ed0e25ed2f160c01b6124d8565b61087a6736b214e763e57a9e60c01b6124d8565b600760008060009054906101000a900473ffffffffffffffffffffffffffffffffffffffff1673ffffffffffffffffffffffffffffffffffffffff1673ffffffffffffffffffffffffffffffffffffffff1681526020019081526020016000206001600760008060009054906101000a900473ffffffffffffffffffffffffffffffffffffffff1673ffffffffffffffffffffffffffffffffffffffff1673ffffffffffffffffffffffffffffffffffffffff1681526020019081526020016000208054905061094a9190612a92565b8154811061095b5761095a61296f565b5b9060005260206000200154600760008060009054906101000a900473ffffffffffffffffffffffffffffffffffffffff1673ffffffffffffffffffffffffffffffffffffffff1673ffffffffffffffffffffffffffffffffffffffff168152602001908152602001600020600254815481106109da576109d961296f565b5b90600052602060002001819055506109fc672303af5540348a2f60c01b6124d8565b610a1067fac92f923f81906b60c01b6124d8565b600760008060009054906101000a900473ffffffffffffffffffffffffffffffffffffffff1673ffffffffffffffffffffffffffffffffffffffff1673ffffffffffffffffffffffffffffffffffffffff168152602001908152602001600020805480610a8057610a7f612b58565b5b60019003818190600052602060002001600090559055610aaa6728e9d2d2d04b8e1f60c01b6124d8565b6001600660015481548110610ac257610ac161296f565b5b90600052602060002090600302016001016000828254610ae29190612b87565b92505081905550610afd67782191a23d2f468c60c01b6124d8565b610b1167f42f4fe18ea46cd860c01b6124d8565b60008060008054906101000a900473ffffffffffffffffffffffffffffffffffffffff1673ffffffffffffffffffffffffffffffffffffffff166001604051610b5990612bec565b60006040518083038185875af1925050503d8060008114610b96576040519150601f19603f3d011682016040523d82523d6000602084013e610b9b565b606091505b5091509150610bb467f56a36c3d235117760c01b6124d8565b610bc867cc1e22b10002ab6a60c01b6124d8565b610bdc67ef6a51b469f6e50360c01b6124d8565b81610c1c576040517f08c379a0000000000000000000000000000000000000000000000000000000008152600401610c1390612c4d565b60405180910390fd5b610c30678dcdc686c7c3d92660c01b6124d8565b610c44679d051e4ac2da5cbc60c01b6124d8565b610c5867856009ea3e1f3ab360c01b6124d8565b610ccd6040518060400160405280600781526020017f50726f6475637400000000000000000000000000000000000000000000000000815250886040518060400160405280600881526020017f72657475726e65640000000000000000000000000000000000000000000000008152506124db565b610ce167362b6a810995446260c01b6124d8565b610cf567d185639bfeda249960c01b6124d8565b7f478dc6d37edc125e74f01c53ecdf42cf8575815cdf2c5f31a566852d22a0c4db8760008054906101000a900473ffffffffffffffffffffffffffffffffffffffff16604051610d46929190612ccc565b60405180910390a150505050505050565b6000610d6d673762a3cfc215eae160c01b6124d8565b610d8167c994f3464b7ad3d560c01b6124d8565b610d95676b413b90aea2f46360c01b6124d8565b47905090565b60008054906101000a900473ffffffffffffffffffffffffffffffffffffffff1681565b6060610dd5672be201bc3f2300b160c01b6124d8565b610de967e03f2f8f7e52f61e60c01b6124d8565b610dfd677a0cc54350bfcad360c01b6124d8565b600060068054905067ffffffffffffffff811115610e1e57610e1d612cf5565b5b604051908082528060200260200182016040528015610e4c5781602001602082028036833780820191505090505b509050610e6367e6ef37663804ddf260c01b6124d8565b610e77677ef55856a1684cae60c01b6124d8565b60005b600680549050811015610f4a57610e9b67e3666a5439230b6960c01b6124d8565b610eaf67e630f68a1be68a0560c01b6124d8565b600060068281548110610ec557610ec461296f565b5b906000526020600020906003020160405180606001604052908160008201548152602001600182015481526020016002820154815250509050610f1267dd654d7abbad7a8c60c01b6124d8565b8060000151838381518110610f2a57610f2961296f565b5b602002602001018181525050508080610f42906129cd565b915050610e7a565b50610f5e66788f924cdc84fa60c01b6124d8565b610f7267e31a41e11f81fdd860c01b6124d8565b8091505090565b610f8d67d35b2b06d2781a4660c01b6124d8565b610fa167a71b114d54baccd260c01b6124d8565b610fb56780d3a7267ba4a19560c01b6124d8565b336000806101000a81548173ffffffffffffffffffffffffffffffffffffffff021916908373ffffffffffffffffffffffffffffffffffffffff16021790555061100967d835bac6c510895b60c01b6124d8565b61101d67ff64fe53dda82ca160c01b6124d8565b6110316738cbe8a591bbe54660c01b6124d8565b80611046671b63d913fe4bef2060c01b6124d8565b61105a673206e4713cdaea3d60c01b6124d8565b60008060146101000a81548160ff02191690831515021790555061108867db5101f1cb1b6a4360c01b6124d8565b61109c67e517f19857aaf4ec60c01b6124d8565b60005b60068054905081101561119e576110c0678175027f9e5d788560c01b6124d8565b6110d467e7bb409859720f9d60c01b6124d8565b81600682815481106110e9576110e861296f565b5b906000526020600020906003020160000154036111775761111467b8d932b944dae3e560c01b6124d8565b611128675e245b165053ec0f60c01b6124d8565b8060018190555061114367667b42c414c4057860c01b6124d8565b6001600060146101000a81548160ff02191690831515021790555061117267375adee4e6e30e0360c01b6124d8565b61119e565b61118b67d5d125137d0c60f560c01b6124d8565b8080611196906129cd565b91505061109f565b506111b367089796e9c26151e460c01b6124d8565b6111c767d7beb570e0c2fda960c01b6124d8565b6111db6740ef4d0742bdb7a860c01b6124d8565b816111f067e98c13e01dffc61160c01b6124d8565b61120467a2d538f9c37ea36460c01b6124d8565b6001600060166101000a81548160ff021916908315150217905550611233676d611c191f86fd2760c01b6124d8565b61124767637c22662bc7331e60c01b6124d8565b60005b600760008060009054906101000a900473ffffffffffffffffffffffffffffffffffffffff1673ffffffffffffffffffffffffffffffffffffffff1673ffffffffffffffffffffffffffffffffffffffff168152602001908152602001600020805490508110156113ea576112c9670b1a137af7982c2c60c01b6124d8565b6112dd67b5e32379fb252d7560c01b6124d8565b81600760008060009054906101000a900473ffffffffffffffffffffffffffffffffffffffff1673ffffffffffffffffffffffffffffffffffffffff1673ffffffffffffffffffffffffffffffffffffffff16815260200190815260200160002082815481106113505761134f61296f565b5b9060005260206000200154036113c25761137467e337af49dd61432d60c01b6124d8565b61138867d5b7aefcdf882b9f60c01b6124d8565b60008060166101000a81548160ff0219169083151502179055506113b667c14dadd2bc0f064960c01b6124d8565b806002819055506113d7565b6113d667a1de23c31546a49b60c01b6124d8565b5b80806113e2906129cd565b91505061124a565b506113ff672bd95160b81325ed60c01b6124d8565b61141367a4e338cd584a67cc60c01b6124d8565b61142767574dd814e55cb04960c01b6124d8565b8261143c67f79c4a40cfd6b39a60c01b6124d8565b611450676c94cf3c3799cf5f60c01b6124d8565b61146467a6d3b062bcc07fc660c01b6124d8565b600060066001548154811061147c5761147b61296f565b5b90600052602060002090600302016001015411156114dc576114a8674c1c237f75add5b460c01b6124d8565b6114bc670bf515d5d5adee3260c01b6124d8565b6001600060156101000a81548160ff021916908315150217905550611553565b6114f067e9fd774c0406756760c01b6124d8565b61150467e25d1316a393247e60c01b6124d8565b611518671edbed2253d084f960c01b6124d8565b6040517f08c379a000000000000000000000000000000000000000000000000000000000815260040161154a90612d70565b60405180910390fd5b611567679cf473cf9350d87c60c01b6124d8565b61157b670d9c5feb814433a660c01b6124d8565b61158f673c120ab675f832e160c01b6124d8565b6115a367e7dbb8f4dc5851f960c01b6124d8565b6115b7678224b191b12564c760c01b6124d8565b6115cb6792444c3a40cefc7960c01b6124d8565b600060149054906101000a900460ff1661161a576040517f08c379a000000000000000000000000000000000000000000000000000000000815260040161161190612ddc565b60405180910390fd5b61162e674bbdd11026c104a660c01b6124d8565b61164267463ecb89ec9e07a260c01b6124d8565b61165667da12d15233d42fd160c01b6124d8565b61166a6735c54738d8e226f760c01b6124d8565b600060169054906101000a900460ff166116b9576040517f08c379a00000000000000000000000000000000000000000000000000000000081526004016116b090612e6e565b60405180910390fd5b6116cd67b82ebaaaeec99af460c01b6124d8565b6116e167d8161fc9fc9f339960c01b6124d8565b6116f5678618a69bce71e32360c01b6124d8565b61170967abfe9563dbd5f20c60c01b6124d8565b6001341461174c576040517f08c379a000000000000000000000000000000000000000000000000000000000815260040161174390612f00565b60405180910390fd5b611760679f76eae03150903860c01b6124d8565b61177467fb41cf792d01514460c01b6124d8565b611788677d3ab12a3531901a60c01b6124d8565b6008600085815260200190815260200160002060008054906101000a900473ffffffffffffffffffffffffffffffffffffffff169080600181540180825580915050600190039060005260206000200160009091909190916101000a81548173ffffffffffffffffffffffffffffffffffffffff021916908373ffffffffffffffffffffffffffffffffffffffff1602179055506118306748a648b32e8e155d60c01b6124d8565b611844675a5e4a2a1c3b8c6c60c01b6124d8565b600760008060009054906101000a900473ffffffffffffffffffffffffffffffffffffffff1673ffffffffffffffffffffffffffffffffffffffff1673ffffffffffffffffffffffffffffffffffffffff1681526020019081526020016000208490806001815401808255809150506001900390600052602060002001600090919091909150556118df676341f9f5652be39060c01b6124d8565b60016006600154815481106118f7576118f661296f565b5b906000526020600020906003020160010160008282546119179190612a92565b92505081905550611932675cf89c64eccc064a60c01b6124d8565b42600960008681526020019081526020016000208190555061195e6770795140956f7b4e60c01b6124d8565b611972670bc87be8c27b125260c01b6124d8565b6119e76040518060400160405280600781526020017f50726f6475637400000000000000000000000000000000000000000000000000815250856040518060400160405280600981526020017f70757263686173656400000000000000000000000000000000000000000000008152506124db565b6119fb67ce0712741c4f9d5c60c01b6124d8565b611a0f672362569532c5d42e60c01b6124d8565b7f9ad4ecfaf27ea0cbeebee0ed92fe15c8a84975f1e3d45ccfc526d7751dcf98ff8460008054906101000a900473ffffffffffffffffffffffffffffffffffffffff16604051611a60929190612ccc565b60405180910390a150505050565b611a826798901709689fe13c60c01b6124d8565b611a9667310ae7ee12f7a62c60c01b6124d8565b611aaa671e458ef64c3585e060c01b6124d8565b611abe67aa62c17942fc6bff60c01b6124d8565b611ad267e41bebc54291897060c01b6124d8565b7f000000000000000000000000000000000000000000000000000000000000000073ffffffffffffffffffffffffffffffffffffffff163373ffffffffffffffffffffffffffffffffffffffff1614611b60576040517f08c379a0000000000000000000000000000000000000000000000000000000008152600401611b5790612f6c565b60405180910390fd5b611b746735b2a19a52964c6460c01b6124d8565b611b8867a9fc9d3b39a4770f60c01b6124d8565b611b9c67640a37a4c0c0ba1d60c01b6124d8565b611bb067dce8dbc67cb2de9d60c01b6124d8565b81611bc5671b63d913fe4bef2060c01b6124d8565b611bd9673206e4713cdaea3d60c01b6124d8565b60008060146101000a81548160ff021916908315150217905550611c0767db5101f1cb1b6a4360c01b6124d8565b611c1b67e517f19857aaf4ec60c01b6124d8565b60005b600680549050811015611d1d57611c3f678175027f9e5d788560c01b6124d8565b611c5367e7bb409859720f9d60c01b6124d8565b8160068281548110611c6857611c6761296f565b5b90600052602060002090600302016000015403611cf657611c9367b8d932b944dae3e560c01b6124d8565b611ca7675e245b165053ec0f60c01b6124d8565b80600181905550611cc267667b42c414c4057860c01b6124d8565b6001600060146101000a81548160ff021916908315150217905550611cf167375adee4e6e30e0360c01b6124d8565b611d1d565b611d0a67d5d125137d0c60f560c01b6124d8565b8080611d15906129cd565b915050611c1e565b50611d3267089796e9c26151e460c01b6124d8565b611d4667fb5be0bc97a9263b60c01b6124d8565b611d5a675a16f895aa84a47f60c01b6124d8565b611d6e679f250c9f0c17866560c01b6124d8565b611d82670a51eda28d665cbc60c01b6124d8565b60011515600060149054906101000a900460ff16151503611f4357611db167f17455a678c64cfb60c01b6124d8565b611dc56793b8e4760f1e300560c01b6124d8565b81600660015481548110611ddc57611ddb61296f565b5b906000526020600020906003020160010181905550611e0567d88861685fc97cf960c01b6124d8565b611e1967a3e991fb8b8f51cc60c01b6124d8565b611edd6040518060400160405280600881526020017f5570646174696e67000000000000000000000000000000000000000000000000815250600660015481548110611e6857611e6761296f565b5b9060005260206000209060030201600001546040518060400160405280600581526020017f746f206265000000000000000000000000000000000000000000000000000000815250600660015481548110611ec657611ec561296f565b5b90600052602060002090600302016001015461257a565b611ef167f621d0d6884a603f60c01b6124d8565b611f056752ef1d8bdf41b50260c01b6124d8565b7f1a58b4c176a67828ebe2456bc637af85e69b115be11597e049b0669d13bea9998383604051611f36929190612f8c565b60405180910390a16120e6565b611f576705cb045afc6fbb8f60c01b6124d8565b611f6b67f76e16b51fe8293860c01b6124d8565b611f7f67280b9ee9a0c42c8f60c01b6124d8565b60066040518060600160405280858152602001848152602001600181525090806001815401808255809150506001900390600052602060002090600302016000909190919091506000820151816000015560208201518160010155604082015181600201555050611ffa67e67074b03a941f2660c01b6124d8565b61200e672642fe52facd8ded60c01b6124d8565b7f2a60815e9d2622a909b3c2b731fa879a529c93b5fecdb1cfea183695707572cc838360405161203f929190612f8c565b60405180910390a161205b67e68b48230911766560c01b6124d8565b61206f67b3b40eff0d57b24760c01b6124d8565b6120e56040518060400160405280601081526020017f6372656174696e672070726f6475637400000000000000000000000000000000815250846040518060400160405280601981526020017f77697468207072696365203120616e64207175616e74697479000000000000008152508561257a565b5b505050565b6060612101676969f12e362e3b6060c01b6124d8565b6121156791963c584608757460c01b6124d8565b61212967d76a140a3ec48aa960c01b6124d8565b6000600860008481526020019081526020016000208054905067ffffffffffffffff81111561215b5761215a612cf5565b5b6040519080825280602002602001820160405280156121895781602001602082028036833780820191505090505b5090506121a067074054ac3baba19260c01b6124d8565b6121b46713d42b0a39425a3f60c01b6124d8565b60005b60086000858152602001908152602001600020805490508110156122c7576121e967a80e1f241b51715560c01b6124d8565b6121fd67f309334221be3a3c60c01b6124d8565b60006008600086815260200190815260200160002082815481106122245761222361296f565b5b9060005260206000200160009054906101000a900473ffffffffffffffffffffffffffffffffffffffff16905061226567848ce37c299eeaf360c01b6124d8565b808383815181106122795761227861296f565b5b602002602001019073ffffffffffffffffffffffffffffffffffffffff16908173ffffffffffffffffffffffffffffffffffffffff16815250505080806122bf906129cd565b9150506121b7565b506122dc676458689bd922d94660c01b6124d8565b6122f06732882adab86d3cf860c01b6124d8565b80915050919050565b606061230f6796455eaa468dd6f660c01b6124d8565b61232367ccce32b9cb8532c660c01b6124d8565b61233767e8fc8314ecbca65860c01b6124d8565b600060068054905067ffffffffffffffff81111561235857612357612cf5565b5b6040519080825280602002602001820160405280156123865781602001602082028036833780820191505090505b50905061239d6709b74b9d4a1e473560c01b6124d8565b6123b167d86849ce2bca45e360c01b6124d8565b60005b600680549050811015612484576123d56793421ab28772380560c01b6124d8565b6123e9677f9ff4409dce963b60c01b6124d8565b6000600682815481106123ff576123fe61296f565b5b90600052602060002090600302016040518060600160405290816000820154815260200160018201548152602001600282015481525050905061244c678a1c6fe954d0f05560c01b6124d8565b80602001518383815181106124645761246361296f565b5b60200260200101818152505050808061247c906129cd565b9150506123b4565b5061249967da6879edb4e41dbd60c01b6124d8565b6124ad67d56ac43b55f3824f60c01b6124d8565b8091505090565b7f000000000000000000000000000000000000000000000000000000000000000081565b50565b6125758383836040516024016124f393929190613034565b6040516020818303038152906040527f5970e089000000000000000000000000000000000000000000000000000000007bffffffffffffffffffffffffffffffffffffffffffffffffffffffff19166020820180517bffffffffffffffffffffffffffffffffffffffffffffffffffffffff838183161783525050505061261c565b505050565b612616848484846040516024016125949493929190613079565b6040516020818303038152906040527fc67ea9d1000000000000000000000000000000000000000000000000000000007bffffffffffffffffffffffffffffffffffffffffffffffffffffffff19166020820180517bffffffffffffffffffffffffffffffffffffffffffffffffffffffff838183161783525050505061261c565b50505050565b60008151905060006a636f6e736f6c652e6c6f679050602083016000808483855afa5050505050565b600080fd5b6000819050919050565b61265d8161264a565b811461266857600080fd5b50565b60008135905061267a81612654565b92915050565b60006020828403121561269657612695612645565b5b60006126a48482850161266b565b91505092915050565b6126b68161264a565b82525050565b60006020820190506126d160008301846126ad565b92915050565b600073ffffffffffffffffffffffffffffffffffffffff82169050919050565b6000612702826126d7565b9050919050565b612712816126f7565b82525050565b600060208201905061272d6000830184612709565b92915050565b600081519050919050565b600082825260208201905092915050565b6000819050602082019050919050565b6127688161264a565b82525050565b600061277a838361275f565b60208301905092915050565b6000602082019050919050565b600061279e82612733565b6127a8818561273e565b93506127b38361274f565b8060005b838110156127e45781516127cb888261276e565b97506127d683612786565b9250506001810190506127b7565b5085935050505092915050565b6000602082019050818103600083015261280b8184612793565b905092915050565b6000806040838503121561282a57612829612645565b5b60006128388582860161266b565b92505060206128498582860161266b565b9150509250929050565b600081519050919050565b600082825260208201905092915050565b6000819050602082019050919050565b600061288a826126d7565b9050919050565b61289a8161287f565b82525050565b60006128ac8383612891565b60208301905092915050565b6000602082019050919050565b60006128d082612853565b6128da818561285e565b93506128e58361286f565b8060005b838110156129165781516128fd88826128a0565b9750612908836128b8565b9250506001810190506128e9565b5085935050505092915050565b6000602082019050818103600083015261293d81846128c5565b905092915050565b61294e8161287f565b82525050565b60006020820190506129696000830184612945565b92915050565b7f4e487b7100000000000000000000000000000000000000000000000000000000600052603260045260246000fd5b7f4e487b7100000000000000000000000000000000000000000000000000000000600052601160045260246000fd5b60006129d88261264a565b91507fffffffffffffffffffffffffffffffffffffffffffffffffffffffffffffffff8203612a0a57612a0961299e565b5b600182019050919050565b600082825260208201905092915050565b7f596f7520646964206e6f742062757920746869732070726f6475637400000000600082015250565b6000612a5c601c83612a15565b9150612a6782612a26565b602082019050919050565b60006020820190508181036000830152612a8b81612a4f565b9050919050565b6000612a9d8261264a565b9150612aa88361264a565b9250828203905081811115612ac057612abf61299e565b5b92915050565b7f596f752063616e206e6f206c6f6e6765722072657475726e207468697320707260008201527f6f64756374000000000000000000000000000000000000000000000000000000602082015250565b6000612b22602583612a15565b9150612b2d82612ac6565b604082019050919050565b60006020820190508181036000830152612b5181612b15565b9050919050565b7f4e487b7100000000000000000000000000000000000000000000000000000000600052603160045260246000fd5b6000612b928261264a565b9150612b9d8361264a565b9250828201905080821115612bb557612bb461299e565b5b92915050565b600081905092915050565b50565b6000612bd6600083612bbb565b9150612be182612bc6565b600082019050919050565b6000612bf782612bc9565b9150819050919050565b7f4661696c656420746f20726566756e6420776569000000000000000000000000600082015250565b6000612c37601483612a15565b9150612c4282612c01565b602082019050919050565b60006020820190508181036000830152612c6681612c2a565b9050919050565b6000819050919050565b6000612c92612c8d612c88846126d7565b612c6d565b6126d7565b9050919050565b6000612ca482612c77565b9050919050565b6000612cb682612c99565b9050919050565b612cc681612cab565b82525050565b6000604082019050612ce160008301856126ad565b612cee6020830184612cbd565b9392505050565b7f4e487b7100000000000000000000000000000000000000000000000000000000600052604160045260246000fd5b7f546869732070726f64756374206973206f7574206f662073746f636b00000000600082015250565b6000612d5a601c83612a15565b9150612d6582612d24565b602082019050919050565b60006020820190508181036000830152612d8981612d4d565b9050919050565b7f546869732070726f6475637420646f6573206e6f742065786973740000000000600082015250565b6000612dc6601b83612a15565b9150612dd182612d90565b602082019050919050565b60006020820190508181036000830152612df581612db9565b9050919050565b7f596f75206861766520616c72656164792070757263686173656420746869732060008201527f70726f6475637400000000000000000000000000000000000000000000000000602082015250565b6000612e58602783612a15565b9150612e6382612dfc565b604082019050919050565b60006020820190508181036000830152612e8781612e4b565b9050919050565b7f596f75206e65656420746f2073656e6420312077656920746f2062757920746860008201527f652070726f647563740000000000000000000000000000000000000000000000602082015250565b6000612eea602983612a15565b9150612ef582612e8e565b604082019050919050565b60006020820190508181036000830152612f1981612edd565b9050919050565b7f4f6e6c792061646d696e20686173207468697320726967687473000000000000600082015250565b6000612f56601a83612a15565b9150612f6182612f20565b602082019050919050565b60006020820190508181036000830152612f8581612f49565b9050919050565b6000604082019050612fa160008301856126ad565b612fae60208301846126ad565b9392505050565b600081519050919050565b60005b83811015612fde578082015181840152602081019050612fc3565b60008484015250505050565b6000601f19601f8301169050919050565b600061300682612fb5565b6130108185612a15565b9350613020818560208601612fc0565b61302981612fea565b840191505092915050565b6000606082019050818103600083015261304e8186612ffb565b905061305d60208301856126ad565b818103604083015261306f8184612ffb565b9050949350505050565b600060808201905081810360008301526130938187612ffb565b90506130a260208301866126ad565b81810360408301526130b48185612ffb565b90506130c360608301846126ad565b9594505050505056fea2646970667358221220a0a30be3c080f119c4e3f81d6dca5541dd5926de70ca14cc09199b346306998864736f6c63430008120033","opcodes":"PUSH1 0xA0 PUSH1 0x40 MSTORE PUSH1 0x1 PUSH1 0x0 PUSH1 0x16 PUSH2 0x100 EXP DUP2 SLOAD DUP2 PUSH1 0xFF MUL NOT AND SWAP1 DUP4 ISZERO ISZERO MUL OR SWAP1 SSTORE POP CALLVALUE DUP1 ISZERO PUSH3 0x2C JUMPI PUSH1 0x0 DUP1 REVERT JUMPDEST POP PUSH3 0x49 PUSH8 0x8FC3653BC748E5C9 PUSH1 0xC0 SHL PUSH3 0x140 PUSH1 0x20 SHL PUSH1 0x20 SHR JUMP JUMPDEST PUSH3 0x65 PUSH8 0x838BCE073F0C0C9E PUSH1 0xC0 SHL PUSH3 0x140 PUSH1 0x20 SHL PUSH1 0x20 SHR JUMP JUMPDEST CALLER PUSH20 0xFFFFFFFFFFFFFFFFFFFFFFFFFFFFFFFFFFFFFFFF AND PUSH1 0x80 DUP2 PUSH20 0xFFFFFFFFFFFFFFFFFFFFFFFFFFFFFFFFFFFFFFFF AND DUP2 MSTORE POP POP PUSH3 0xB5 PUSH8 0xF7929AFDBB6F5B49 PUSH1 0xC0 SHL PUSH3 0x140 PUSH1 0x20 SHL PUSH1 0x20 SHR JUMP JUMPDEST PUSH3 0xD1 PUSH8 0x9C25A78AA465931F PUSH1 0xC0 SHL PUSH3 0x140 PUSH1 0x20 SHL PUSH1 0x20 SHR JUMP JUMPDEST PUSH1 0x6 PUSH1 0x40 MLOAD DUP1 PUSH1 0x60 ADD PUSH1 0x40 MSTORE DUP1 PUSH1 0x1 DUP2 MSTORE PUSH1 0x20 ADD PUSH1 0x1 DUP2 MSTORE PUSH1 0x20 ADD PUSH1 0x1 DUP2 MSTORE POP SWAP1 DUP1 PUSH1 0x1 DUP2 SLOAD ADD DUP1 DUP3 SSTORE DUP1 SWAP2 POP POP PUSH1 0x1 SWAP1 SUB SWAP1 PUSH1 0x0 MSTORE PUSH1 0x20 PUSH1 0x0 KECCAK256 SWAP1 PUSH1 0x3 MUL ADD PUSH1 0x0 SWAP1 SWAP2 SWAP1 SWAP2 SWAP1 SWAP2 POP PUSH1 0x0 DUP3 ADD MLOAD DUP2 PUSH1 0x0 ADD SSTORE PUSH1 0x20 DUP3 ADD MLOAD DUP2 PUSH1 0x1 ADD SSTORE PUSH1 0x40 DUP3 ADD MLOAD DUP2 PUSH1 0x2 ADD SSTORE POP POP PUSH3 0x143 JUMP JUMPDEST POP JUMP JUMPDEST PUSH1 0x80 MLOAD PUSH2 0x3102 PUSH3 0x166 PUSH1 0x0 CODECOPY PUSH1 0x0 DUP2 DUP2 PUSH2 0x1AD4 ADD MSTORE PUSH2 0x24B6 ADD MSTORE PUSH2 0x3102 PUSH1 0x0 RETURN INVALID PUSH1 0x80 PUSH1 0x40 MSTORE PUSH1 0x4 CALLDATASIZE LT PUSH2 0x86 JUMPI PUSH1 0x0 CALLDATALOAD PUSH1 0xE0 SHR DUP1 PUSH4 0x8642269E GT PUSH2 0x59 JUMPI DUP1 PUSH4 0x8642269E EQ PUSH2 0x135 JUMPI DUP1 PUSH4 0xB04ECA76 EQ PUSH2 0x151 JUMPI DUP1 PUSH4 0xB110410D EQ PUSH2 0x17A JUMPI DUP1 PUSH4 0xDF23A026 EQ PUSH2 0x1B7 JUMPI DUP1 PUSH4 0xF851A440 EQ PUSH2 0x1E2 JUMPI PUSH2 0x86 JUMP JUMPDEST DUP1 PUSH4 0x131E407D EQ PUSH2 0x8B JUMPI DUP1 PUSH4 0x6F9FB98A EQ PUSH2 0xB4 JUMPI DUP1 PUSH4 0x7150D8AE EQ PUSH2 0xDF JUMPI DUP1 PUSH4 0x7EBC0A82 EQ PUSH2 0x10A JUMPI JUMPDEST PUSH1 0x0 DUP1 REVERT JUMPDEST CALLVALUE DUP1 ISZERO PUSH2 0x97 JUMPI PUSH1 0x0 DUP1 REVERT JUMPDEST POP PUSH2 0xB2 PUSH1 0x4 DUP1 CALLDATASIZE SUB DUP2 ADD SWAP1 PUSH2 0xAD SWAP2 SWAP1 PUSH2 0x2680 JUMP JUMPDEST PUSH2 0x20D JUMP JUMPDEST STOP JUMPDEST CALLVALUE DUP1 ISZERO PUSH2 0xC0 JUMPI PUSH1 0x0 DUP1 REVERT JUMPDEST POP PUSH2 0xC9 PUSH2 0xD57 JUMP JUMPDEST PUSH1 0x40 MLOAD PUSH2 0xD6 SWAP2 SWAP1 PUSH2 0x26BC JUMP JUMPDEST PUSH1 0x40 MLOAD DUP1 SWAP2 SUB SWAP1 RETURN JUMPDEST CALLVALUE DUP1 ISZERO PUSH2 0xEB JUMPI PUSH1 0x0 DUP1 REVERT JUMPDEST POP PUSH2 0xF4 PUSH2 0xD9B JUMP JUMPDEST PUSH1 0x40 MLOAD PUSH2 0x101 SWAP2 SWAP1 PUSH2 0x2718 JUMP JUMPDEST PUSH1 0x40 MLOAD DUP1 SWAP2 SUB SWAP1 RETURN JUMPDEST CALLVALUE DUP1 ISZERO PUSH2 0x116 JUMPI PUSH1 0x0 DUP1 REVERT JUMPDEST POP PUSH2 0x11F PUSH2 0xDBF JUMP JUMPDEST PUSH1 0x40 MLOAD PUSH2 0x12C SWAP2 SWAP1 PUSH2 0x27F1 JUMP JUMPDEST PUSH1 0x40 MLOAD DUP1 SWAP2 SUB SWAP1 RETURN JUMPDEST PUSH2 0x14F PUSH1 0x4 DUP1 CALLDATASIZE SUB DUP2 ADD SWAP1 PUSH2 0x14A SWAP2 SWAP1 PUSH2 0x2680 JUMP JUMPDEST PUSH2 0xF79 JUMP JUMPDEST STOP JUMPDEST CALLVALUE DUP1 ISZERO PUSH2 0x15D JUMPI PUSH1 0x0 DUP1 REVERT JUMPDEST POP PUSH2 0x178 PUSH1 0x4 DUP1 CALLDATASIZE SUB DUP2 ADD SWAP1 PUSH2 0x173 SWAP2 SWAP1 PUSH2 0x2813 JUMP JUMPDEST PUSH2 0x1A6E JUMP JUMPDEST STOP JUMPDEST CALLVALUE DUP1 ISZERO PUSH2 0x186 JUMPI PUSH1 0x0 DUP1 REVERT JUMPDEST POP PUSH2 0x1A1 PUSH1 0x4 DUP1 CALLDATASIZE SUB DUP2 ADD SWAP1 PUSH2 0x19C SWAP2 SWAP1 PUSH2 0x2680 JUMP JUMPDEST PUSH2 0x20EB JUMP JUMPDEST PUSH1 0x40 MLOAD PUSH2 0x1AE SWAP2 SWAP1 PUSH2 0x2923 JUMP JUMPDEST PUSH1 0x40 MLOAD DUP1 SWAP2 SUB SWAP1 RETURN JUMPDEST CALLVALUE DUP1 ISZERO PUSH2 0x1C3 JUMPI PUSH1 0x0 DUP1 REVERT JUMPDEST POP PUSH2 0x1CC PUSH2 0x22F9 JUMP JUMPDEST PUSH1 0x40 MLOAD PUSH2 0x1D9 SWAP2 SWAP1 PUSH2 0x27F1 JUMP JUMPDEST PUSH1 0x40 MLOAD DUP1 SWAP2 SUB SWAP1 RETURN JUMPDEST CALLVALUE DUP1 ISZERO PUSH2 0x1EE JUMPI PUSH1 0x0 DUP1 REVERT JUMPDEST POP PUSH2 0x1F7 PUSH2 0x24B4 JUMP JUMPDEST PUSH1 0x40 MLOAD PUSH2 0x204 SWAP2 SWAP1 PUSH2 0x2954 JUMP JUMPDEST PUSH1 0x40 MLOAD DUP1 SWAP2 SUB SWAP1 RETURN JUMPDEST PUSH2 0x221 PUSH8 0xEC526628A8430AAE PUSH1 0xC0 SHL PUSH2 0x24D8 JUMP JUMPDEST PUSH2 0x235 PUSH8 0xA71B114D54BACCD2 PUSH1 0xC0 SHL PUSH2 0x24D8 JUMP JUMPDEST PUSH2 0x249 PUSH8 0x80D3A7267BA4A195 PUSH1 0xC0 SHL PUSH2 0x24D8 JUMP JUMPDEST CALLER PUSH1 0x0 DUP1 PUSH2 0x100 EXP DUP2 SLOAD DUP2 PUSH20 0xFFFFFFFFFFFFFFFFFFFFFFFFFFFFFFFFFFFFFFFF MUL NOT AND SWAP1 DUP4 PUSH20 0xFFFFFFFFFFFFFFFFFFFFFFFFFFFFFFFFFFFFFFFF AND MUL OR SWAP1 SSTORE POP PUSH2 0x29D PUSH8 0xD835BAC6C510895B PUSH1 0xC0 SHL PUSH2 0x24D8 JUMP JUMPDEST PUSH2 0x2B1 PUSH8 0x688E4EEE57F2FA5C PUSH1 0xC0 SHL PUSH2 0x24D8 JUMP JUMPDEST PUSH2 0x2C5 PUSH8 0x3FD3ED91495F0EDC PUSH1 0xC0 SHL PUSH2 0x24D8 JUMP JUMPDEST DUP1 PUSH2 0x2DA PUSH8 0xE98C13E01DFFC611 PUSH1 0xC0 SHL PUSH2 0x24D8 JUMP JUMPDEST PUSH2 0x2EE PUSH8 0xA2D538F9C37EA364 PUSH1 0xC0 SHL PUSH2 0x24D8 JUMP JUMPDEST PUSH1 0x1 PUSH1 0x0 PUSH1 0x16 PUSH2 0x100 EXP DUP2 SLOAD DUP2 PUSH1 0xFF MUL NOT AND SWAP1 DUP4 ISZERO ISZERO MUL OR SWAP1 SSTORE POP PUSH2 0x31D PUSH8 0x6D611C191F86FD27 PUSH1 0xC0 SHL PUSH2 0x24D8 JUMP JUMPDEST PUSH2 0x331 PUSH8 0x637C22662BC7331E PUSH1 0xC0 SHL PUSH2 0x24D8 JUMP JUMPDEST PUSH1 0x0 JUMPDEST PUSH1 0x7 PUSH1 0x0 DUP1 PUSH1 0x0 SWAP1 SLOAD SWAP1 PUSH2 0x100 EXP SWAP1 DIV PUSH20 0xFFFFFFFFFFFFFFFFFFFFFFFFFFFFFFFFFFFFFFFF AND PUSH20 0xFFFFFFFFFFFFFFFFFFFFFFFFFFFFFFFFFFFFFFFF AND PUSH20 0xFFFFFFFFFFFFFFFFFFFFFFFFFFFFFFFFFFFFFFFF AND DUP2 MSTORE PUSH1 0x20 ADD SWAP1 DUP2 MSTORE PUSH1 0x20 ADD PUSH1 0x0 KECCAK256 DUP1 SLOAD SWAP1 POP DUP2 LT ISZERO PUSH2 0x4D4 JUMPI PUSH2 0x3B3 PUSH8 0xB1A137AF7982C2C PUSH1 0xC0 SHL PUSH2 0x24D8 JUMP JUMPDEST PUSH2 0x3C7 PUSH8 0xB5E32379FB252D75 PUSH1 0xC0 SHL PUSH2 0x24D8 JUMP JUMPDEST DUP2 PUSH1 0x7 PUSH1 0x0 DUP1 PUSH1 0x0 SWAP1 SLOAD SWAP1 PUSH2 0x100 EXP SWAP1 DIV PUSH20 0xFFFFFFFFFFFFFFFFFFFFFFFFFFFFFFFFFFFFFFFF AND PUSH20 0xFFFFFFFFFFFFFFFFFFFFFFFFFFFFFFFFFFFFFFFF AND PUSH20 0xFFFFFFFFFFFFFFFFFFFFFFFFFFFFFFFFFFFFFFFF AND DUP2 MSTORE PUSH1 0x20 ADD SWAP1 DUP2 MSTORE PUSH1 0x20 ADD PUSH1 0x0 KECCAK256 DUP3 DUP2 SLOAD DUP2 LT PUSH2 0x43A JUMPI PUSH2 0x439 PUSH2 0x296F JUMP JUMPDEST JUMPDEST SWAP1 PUSH1 0x0 MSTORE PUSH1 0x20 PUSH1 0x0 KECCAK256 ADD SLOAD SUB PUSH2 0x4AC JUMPI PUSH2 0x45E PUSH8 0xE337AF49DD61432D PUSH1 0xC0 SHL PUSH2 0x24D8 JUMP JUMPDEST PUSH2 0x472 PUSH8 0xD5B7AEFCDF882B9F PUSH1 0xC0 SHL PUSH2 0x24D8 JUMP JUMPDEST PUSH1 0x0 DUP1 PUSH1 0x16 PUSH2 0x100 EXP DUP2 SLOAD DUP2 PUSH1 0xFF MUL NOT AND SWAP1 DUP4 ISZERO ISZERO MUL OR SWAP1 SSTORE POP PUSH2 0x4A0 PUSH8 0xC14DADD2BC0F0649 PUSH1 0xC0 SHL PUSH2 0x24D8 JUMP JUMPDEST DUP1 PUSH1 0x2 DUP2 SWAP1 SSTORE POP PUSH2 0x4C1 JUMP JUMPDEST PUSH2 0x4C0 PUSH8 0xA1DE23C31546A49B PUSH1 0xC0 SHL PUSH2 0x24D8 JUMP JUMPDEST JUMPDEST DUP1 DUP1 PUSH2 0x4CC SWAP1 PUSH2 0x29CD JUMP JUMPDEST SWAP2 POP POP PUSH2 0x334 JUMP JUMPDEST POP PUSH2 0x4E9 PUSH8 0x2BD95160B81325ED PUSH1 0xC0 SHL PUSH2 0x24D8 JUMP JUMPDEST PUSH2 0x4FD PUSH8 0x63C40BF9AADE96B3 PUSH1 0xC0 SHL PUSH2 0x24D8 JUMP JUMPDEST PUSH2 0x511 PUSH8 0xB067A5C0EDE1EE8 PUSH1 0xC0 SHL PUSH2 0x24D8 JUMP JUMPDEST DUP2 PUSH2 0x526 PUSH8 0x1B63D913FE4BEF20 PUSH1 0xC0 SHL PUSH2 0x24D8 JUMP JUMPDEST PUSH2 0x53A PUSH8 0x3206E4713CDAEA3D PUSH1 0xC0 SHL PUSH2 0x24D8 JUMP JUMPDEST PUSH1 0x0 DUP1 PUSH1 0x14 PUSH2 0x100 EXP DUP2 SLOAD DUP2 PUSH1 0xFF MUL NOT AND SWAP1 DUP4 ISZERO ISZERO MUL OR SWAP1 SSTORE POP PUSH2 0x568 PUSH8 0xDB5101F1CB1B6A43 PUSH1 0xC0 SHL PUSH2 0x24D8 JUMP JUMPDEST PUSH2 0x57C PUSH8 0xE517F19857AAF4EC PUSH1 0xC0 SHL PUSH2 0x24D8 JUMP JUMPDEST PUSH1 0x0 JUMPDEST PUSH1 0x6 DUP1 SLOAD SWAP1 POP DUP2 LT ISZERO PUSH2 0x67E JUMPI PUSH2 0x5A0 PUSH8 0x8175027F9E5D7885 PUSH1 0xC0 SHL PUSH2 0x24D8 JUMP JUMPDEST PUSH2 0x5B4 PUSH8 0xE7BB409859720F9D PUSH1 0xC0 SHL PUSH2 0x24D8 JUMP JUMPDEST DUP2 PUSH1 0x6 DUP3 DUP2 SLOAD DUP2 LT PUSH2 0x5C9 JUMPI PUSH2 0x5C8 PUSH2 0x296F JUMP JUMPDEST JUMPDEST SWAP1 PUSH1 0x0 MSTORE PUSH1 0x20 PUSH1 0x0 KECCAK256 SWAP1 PUSH1 0x3 MUL ADD PUSH1 0x0 ADD SLOAD SUB PUSH2 0x657 JUMPI PUSH2 0x5F4 PUSH8 0xB8D932B944DAE3E5 PUSH1 0xC0 SHL PUSH2 0x24D8 JUMP JUMPDEST PUSH2 0x608 PUSH8 0x5E245B165053EC0F PUSH1 0xC0 SHL PUSH2 0x24D8 JUMP JUMPDEST DUP1 PUSH1 0x1 DUP2 SWAP1 SSTORE POP PUSH2 0x623 PUSH8 0x667B42C414C40578 PUSH1 0xC0 SHL PUSH2 0x24D8 JUMP JUMPDEST PUSH1 0x1 PUSH1 0x0 PUSH1 0x14 PUSH2 0x100 EXP DUP2 SLOAD DUP2 PUSH1 0xFF MUL NOT AND SWAP1 DUP4 ISZERO ISZERO MUL OR SWAP1 SSTORE POP PUSH2 0x652 PUSH8 0x375ADEE4E6E30E03 PUSH1 0xC0 SHL PUSH2 0x24D8 JUMP JUMPDEST PUSH2 0x67E JUMP JUMPDEST PUSH2 0x66B PUSH8 0xD5D125137D0C60F5 PUSH1 0xC0 SHL PUSH2 0x24D8 JUMP JUMPDEST DUP1 DUP1 PUSH2 0x676 SWAP1 PUSH2 0x29CD JUMP JUMPDEST SWAP2 POP POP PUSH2 0x57F JUMP JUMPDEST POP PUSH2 0x693 PUSH8 0x89796E9C26151E4 PUSH1 0xC0 SHL PUSH2 0x24D8 JUMP JUMPDEST PUSH2 0x6A7 PUSH8 0x1F3EFF2057BFA35A PUSH1 0xC0 SHL PUSH2 0x24D8 JUMP JUMPDEST PUSH2 0x6BB PUSH8 0x65C21A98A9ACC249 PUSH1 0xC0 SHL PUSH2 0x24D8 JUMP JUMPDEST PUSH2 0x6CF PUSH8 0x70194D26EF00DCE1 PUSH1 0xC0 SHL PUSH2 0x24D8 JUMP JUMPDEST PUSH2 0x6E3 PUSH8 0x85AFB7C7CD5B764D PUSH1 0xC0 SHL PUSH2 0x24D8 JUMP JUMPDEST PUSH2 0x6F7 PUSH8 0xF607F2948C06011C PUSH1 0xC0 SHL PUSH2 0x24D8 JUMP JUMPDEST PUSH1 0x0 PUSH1 0x16 SWAP1 SLOAD SWAP1 PUSH2 0x100 EXP SWAP1 DIV PUSH1 0xFF AND ISZERO PUSH2 0x747 JUMPI PUSH1 0x40 MLOAD PUSH32 0x8C379A000000000000000000000000000000000000000000000000000000000 DUP2 MSTORE PUSH1 0x4 ADD PUSH2 0x73E SWAP1 PUSH2 0x2A72 JUMP JUMPDEST PUSH1 0x40 MLOAD DUP1 SWAP2 SUB SWAP1 REVERT JUMPDEST PUSH2 0x75B PUSH8 0xD8DCC5E35ADC2F0B PUSH1 0xC0 SHL PUSH2 0x24D8 JUMP JUMPDEST PUSH2 0x76F PUSH8 0x8F99FB063BE527E9 PUSH1 0xC0 SHL PUSH2 0x24D8 JUMP JUMPDEST PUSH2 0x783 PUSH8 0xE5BA9AA9AC4302F0 PUSH1 0xC0 SHL PUSH2 0x24D8 JUMP JUMPDEST PUSH1 0x0 TIMESTAMP SWAP1 POP PUSH2 0x79C PUSH8 0x423ACF0E82B4F67 PUSH1 0xC0 SHL PUSH2 0x24D8 JUMP JUMPDEST PUSH2 0x7B0 PUSH8 0xA7424EB27BAF28C PUSH1 0xC0 SHL PUSH2 0x24D8 JUMP JUMPDEST PUSH1 0x0 PUSH1 0x9 PUSH1 0x0 DUP7 DUP2 MSTORE PUSH1 0x20 ADD SWAP1 DUP2 MSTORE PUSH1 0x20 ADD PUSH1 0x0 KECCAK256 SLOAD DUP3 PUSH2 0x7D1 SWAP2 SWAP1 PUSH2 0x2A92 JUMP JUMPDEST SWAP1 POP PUSH2 0x7E7 PUSH8 0x8F1F5C4E5EFB1919 PUSH1 0xC0 SHL PUSH2 0x24D8 JUMP JUMPDEST PUSH2 0x7FB PUSH8 0xF11F96C8CFAC2250 PUSH1 0xC0 SHL PUSH2 0x24D8 JUMP JUMPDEST PUSH2 0x80F PUSH8 0xB93938B93756D4D1 PUSH1 0xC0 SHL PUSH2 0x24D8 JUMP JUMPDEST PUSH1 0x64 DUP2 LT PUSH2 0x852 JUMPI PUSH1 0x40 MLOAD PUSH32 0x8C379A000000000000000000000000000000000000000000000000000000000 DUP2 MSTORE PUSH1 0x4 ADD PUSH2 0x849 SWAP1 PUSH2 0x2B38 JUMP JUMPDEST PUSH1 0x40 MLOAD DUP1 SWAP2 SUB SWAP1 REVERT JUMPDEST PUSH2 0x866 PUSH8 0x97549ED0E25ED2F1 PUSH1 0xC0 SHL PUSH2 0x24D8 JUMP JUMPDEST PUSH2 0x87A PUSH8 0x36B214E763E57A9E PUSH1 0xC0 SHL PUSH2 0x24D8 JUMP JUMPDEST PUSH1 0x7 PUSH1 0x0 DUP1 PUSH1 0x0 SWAP1 SLOAD SWAP1 PUSH2 0x100 EXP SWAP1 DIV PUSH20 0xFFFFFFFFFFFFFFFFFFFFFFFFFFFFFFFFFFFFFFFF AND PUSH20 0xFFFFFFFFFFFFFFFFFFFFFFFFFFFFFFFFFFFFFFFF AND PUSH20 0xFFFFFFFFFFFFFFFFFFFFFFFFFFFFFFFFFFFFFFFF AND DUP2 MSTORE PUSH1 0x20 ADD SWAP1 DUP2 MSTORE PUSH1 0x20 ADD PUSH1 0x0 KECCAK256 PUSH1 0x1 PUSH1 0x7 PUSH1 0x0 DUP1 PUSH1 0x0 SWAP1 SLOAD SWAP1 PUSH2 0x100 EXP SWAP1 DIV PUSH20 0xFFFFFFFFFFFFFFFFFFFFFFFFFFFFFFFFFFFFFFFF AND PUSH20 0xFFFFFFFFFFFFFFFFFFFFFFFFFFFFFFFFFFFFFFFF AND PUSH20 0xFFFFFFFFFFFFFFFFFFFFFFFFFFFFFFFFFFFFFFFF AND DUP2 MSTORE PUSH1 0x20 ADD SWAP1 DUP2 MSTORE PUSH1 0x20 ADD PUSH1 0x0 KECCAK256 DUP1 SLOAD SWAP1 POP PUSH2 0x94A SWAP2 SWAP1 PUSH2 0x2A92 JUMP JUMPDEST DUP2 SLOAD DUP2 LT PUSH2 0x95B JUMPI PUSH2 0x95A PUSH2 0x296F JUMP JUMPDEST JUMPDEST SWAP1 PUSH1 0x0 MSTORE PUSH1 0x20 PUSH1 0x0 KECCAK256 ADD SLOAD PUSH1 0x7 PUSH1 0x0 DUP1 PUSH1 0x0 SWAP1 SLOAD SWAP1 PUSH2 0x100 EXP SWAP1 DIV PUSH20 0xFFFFFFFFFFFFFFFFFFFFFFFFFFFFFFFFFFFFFFFF AND PUSH20 0xFFFFFFFFFFFFFFFFFFFFFFFFFFFFFFFFFFFFFFFF AND PUSH20 0xFFFFFFFFFFFFFFFFFFFFFFFFFFFFFFFFFFFFFFFF AND DUP2 MSTORE PUSH1 0x20 ADD SWAP1 DUP2 MSTORE PUSH1 0x20 ADD PUSH1 0x0 KECCAK256 PUSH1 0x2 SLOAD DUP2 SLOAD DUP2 LT PUSH2 0x9DA JUMPI PUSH2 0x9D9 PUSH2 0x296F JUMP JUMPDEST JUMPDEST SWAP1 PUSH1 0x0 MSTORE PUSH1 0x20 PUSH1 0x0 KECCAK256 ADD DUP2 SWAP1 SSTORE POP PUSH2 0x9FC PUSH8 0x2303AF5540348A2F PUSH1 0xC0 SHL PUSH2 0x24D8 JUMP JUMPDEST PUSH2 0xA10 PUSH8 0xFAC92F923F81906B PUSH1 0xC0 SHL PUSH2 0x24D8 JUMP JUMPDEST PUSH1 0x7 PUSH1 0x0 DUP1 PUSH1 0x0 SWAP1 SLOAD SWAP1 PUSH2 0x100 EXP SWAP1 DIV PUSH20 0xFFFFFFFFFFFFFFFFFFFFFFFFFFFFFFFFFFFFFFFF AND PUSH20 0xFFFFFFFFFFFFFFFFFFFFFFFFFFFFFFFFFFFFFFFF AND PUSH20 0xFFFFFFFFFFFFFFFFFFFFFFFFFFFFFFFFFFFFFFFF AND DUP2 MSTORE PUSH1 0x20 ADD SWAP1 DUP2 MSTORE PUSH1 0x20 ADD PUSH1 0x0 KECCAK256 DUP1 SLOAD DUP1 PUSH2 0xA80 JUMPI PUSH2 0xA7F PUSH2 0x2B58 JUMP JUMPDEST JUMPDEST PUSH1 0x1 SWAP1 SUB DUP2 DUP2 SWAP1 PUSH1 0x0 MSTORE PUSH1 0x20 PUSH1 0x0 KECCAK256 ADD PUSH1 0x0 SWAP1 SSTORE SWAP1 SSTORE PUSH2 0xAAA PUSH8 0x28E9D2D2D04B8E1F PUSH1 0xC0 SHL PUSH2 0x24D8 JUMP JUMPDEST PUSH1 0x1 PUSH1 0x6 PUSH1 0x1 SLOAD DUP2 SLOAD DUP2 LT PUSH2 0xAC2 JUMPI PUSH2 0xAC1 PUSH2 0x296F JUMP JUMPDEST JUMPDEST SWAP1 PUSH1 0x0 MSTORE PUSH1 0x20 PUSH1 0x0 KECCAK256 SWAP1 PUSH1 0x3 MUL ADD PUSH1 0x1 ADD PUSH1 0x0 DUP3 DUP3 SLOAD PUSH2 0xAE2 SWAP2 SWAP1 PUSH2 0x2B87 JUMP JUMPDEST SWAP3 POP POP DUP2 SWAP1 SSTORE POP PUSH2 0xAFD PUSH8 0x782191A23D2F468C PUSH1 0xC0 SHL PUSH2 0x24D8 JUMP JUMPDEST PUSH2 0xB11 PUSH8 0xF42F4FE18EA46CD8 PUSH1 0xC0 SHL PUSH2 0x24D8 JUMP JUMPDEST PUSH1 0x0 DUP1 PUSH1 0x0 DUP1 SLOAD SWAP1 PUSH2 0x100 EXP SWAP1 DIV PUSH20 0xFFFFFFFFFFFFFFFFFFFFFFFFFFFFFFFFFFFFFFFF AND PUSH20 0xFFFFFFFFFFFFFFFFFFFFFFFFFFFFFFFFFFFFFFFF AND PUSH1 0x1 PUSH1 0x40 MLOAD PUSH2 0xB59 SWAP1 PUSH2 0x2BEC JUMP JUMPDEST PUSH1 0x0 PUSH1 0x40 MLOAD DUP1 DUP4 SUB DUP2 DUP6 DUP8 GAS CALL SWAP3 POP POP POP RETURNDATASIZE DUP1 PUSH1 0x0 DUP2 EQ PUSH2 0xB96 JUMPI PUSH1 0x40 MLOAD SWAP2 POP PUSH1 0x1F NOT PUSH1 0x3F RETURNDATASIZE ADD AND DUP3 ADD PUSH1 0x40 MSTORE RETURNDATASIZE DUP3 MSTORE RETURNDATASIZE PUSH1 0x0 PUSH1 0x20 DUP5 ADD RETURNDATACOPY PUSH2 0xB9B JUMP JUMPDEST PUSH1 0x60 SWAP2 POP JUMPDEST POP SWAP2 POP SWAP2 POP PUSH2 0xBB4 PUSH8 0xF56A36C3D2351177 PUSH1 0xC0 SHL PUSH2 0x24D8 JUMP JUMPDEST PUSH2 0xBC8 PUSH8 0xCC1E22B10002AB6A PUSH1 0xC0 SHL PUSH2 0x24D8 JUMP JUMPDEST PUSH2 0xBDC PUSH8 0xEF6A51B469F6E503 PUSH1 0xC0 SHL PUSH2 0x24D8 JUMP JUMPDEST DUP2 PUSH2 0xC1C JUMPI PUSH1 0x40 MLOAD PUSH32 0x8C379A000000000000000000000000000000000000000000000000000000000 DUP2 MSTORE PUSH1 0x4 ADD PUSH2 0xC13 SWAP1 PUSH2 0x2C4D JUMP JUMPDEST PUSH1 0x40 MLOAD DUP1 SWAP2 SUB SWAP1 REVERT JUMPDEST PUSH2 0xC30 PUSH8 0x8DCDC686C7C3D926 PUSH1 0xC0 SHL PUSH2 0x24D8 JUMP JUMPDEST PUSH2 0xC44 PUSH8 0x9D051E4AC2DA5CBC PUSH1 0xC0 SHL PUSH2 0x24D8 JUMP JUMPDEST PUSH2 0xC58 PUSH8 0x856009EA3E1F3AB3 PUSH1 0xC0 SHL PUSH2 0x24D8 JUMP JUMPDEST PUSH2 0xCCD PUSH1 0x40 MLOAD DUP1 PUSH1 0x40 ADD PUSH1 0x40 MSTORE DUP1 PUSH1 0x7 DUP2 MSTORE PUSH1 0x20 ADD PUSH32 0x50726F6475637400000000000000000000000000000000000000000000000000 DUP2 MSTORE POP DUP9 PUSH1 0x40 MLOAD DUP1 PUSH1 0x40 ADD PUSH1 0x40 MSTORE DUP1 PUSH1 0x8 DUP2 MSTORE PUSH1 0x20 ADD PUSH32 0x72657475726E6564000000000000000000000000000000000000000000000000 DUP2 MSTORE POP PUSH2 0x24DB JUMP JUMPDEST PUSH2 0xCE1 PUSH8 0x362B6A8109954462 PUSH1 0xC0 SHL PUSH2 0x24D8 JUMP JUMPDEST PUSH2 0xCF5 PUSH8 0xD185639BFEDA2499 PUSH1 0xC0 SHL PUSH2 0x24D8 JUMP JUMPDEST PUSH32 0x478DC6D37EDC125E74F01C53ECDF42CF8575815CDF2C5F31A566852D22A0C4DB DUP8 PUSH1 0x0 DUP1 SLOAD SWAP1 PUSH2 0x100 EXP SWAP1 DIV PUSH20 0xFFFFFFFFFFFFFFFFFFFFFFFFFFFFFFFFFFFFFFFF AND PUSH1 0x40 MLOAD PUSH2 0xD46 SWAP3 SWAP2 SWAP1 PUSH2 0x2CCC JUMP JUMPDEST PUSH1 0x40 MLOAD DUP1 SWAP2 SUB SWAP1 LOG1 POP POP POP POP POP POP POP JUMP JUMPDEST PUSH1 0x0 PUSH2 0xD6D PUSH8 0x3762A3CFC215EAE1 PUSH1 0xC0 SHL PUSH2 0x24D8 JUMP JUMPDEST PUSH2 0xD81 PUSH8 0xC994F3464B7AD3D5 PUSH1 0xC0 SHL PUSH2 0x24D8 JUMP JUMPDEST PUSH2 0xD95 PUSH8 0x6B413B90AEA2F463 PUSH1 0xC0 SHL PUSH2 0x24D8 JUMP JUMPDEST SELFBALANCE SWAP1 POP SWAP1 JUMP JUMPDEST PUSH1 0x0 DUP1 SLOAD SWAP1 PUSH2 0x100 EXP SWAP1 DIV PUSH20 0xFFFFFFFFFFFFFFFFFFFFFFFFFFFFFFFFFFFFFFFF AND DUP2 JUMP JUMPDEST PUSH1 0x60 PUSH2 0xDD5 PUSH8 0x2BE201BC3F2300B1 PUSH1 0xC0 SHL PUSH2 0x24D8 JUMP JUMPDEST PUSH2 0xDE9 PUSH8 0xE03F2F8F7E52F61E PUSH1 0xC0 SHL PUSH2 0x24D8 JUMP JUMPDEST PUSH2 0xDFD PUSH8 0x7A0CC54350BFCAD3 PUSH1 0xC0 SHL PUSH2 0x24D8 JUMP JUMPDEST PUSH1 0x0 PUSH1 0x6 DUP1 SLOAD SWAP1 POP PUSH8 0xFFFFFFFFFFFFFFFF DUP2 GT ISZERO PUSH2 0xE1E JUMPI PUSH2 0xE1D PUSH2 0x2CF5 JUMP JUMPDEST JUMPDEST PUSH1 0x40 MLOAD SWAP1 DUP1 DUP3 MSTORE DUP1 PUSH1 0x20 MUL PUSH1 0x20 ADD DUP3 ADD PUSH1 0x40 MSTORE DUP1 ISZERO PUSH2 0xE4C JUMPI DUP2 PUSH1 0x20 ADD PUSH1 0x20 DUP3 MUL DUP1 CALLDATASIZE DUP4 CALLDATACOPY DUP1 DUP3 ADD SWAP2 POP POP SWAP1 POP JUMPDEST POP SWAP1 POP PUSH2 0xE63 PUSH8 0xE6EF37663804DDF2 PUSH1 0xC0 SHL PUSH2 0x24D8 JUMP JUMPDEST PUSH2 0xE77 PUSH8 0x7EF55856A1684CAE PUSH1 0xC0 SHL PUSH2 0x24D8 JUMP JUMPDEST PUSH1 0x0 JUMPDEST PUSH1 0x6 DUP1 SLOAD SWAP1 POP DUP2 LT ISZERO PUSH2 0xF4A JUMPI PUSH2 0xE9B PUSH8 0xE3666A5439230B69 PUSH1 0xC0 SHL PUSH2 0x24D8 JUMP JUMPDEST PUSH2 0xEAF PUSH8 0xE630F68A1BE68A05 PUSH1 0xC0 SHL PUSH2 0x24D8 JUMP JUMPDEST PUSH1 0x0 PUSH1 0x6 DUP3 DUP2 SLOAD DUP2 LT PUSH2 0xEC5 JUMPI PUSH2 0xEC4 PUSH2 0x296F JUMP JUMPDEST JUMPDEST SWAP1 PUSH1 0x0 MSTORE PUSH1 0x20 PUSH1 0x0 KECCAK256 SWAP1 PUSH1 0x3 MUL ADD PUSH1 0x40 MLOAD DUP1 PUSH1 0x60 ADD PUSH1 0x40 MSTORE SWAP1 DUP2 PUSH1 0x0 DUP3 ADD SLOAD DUP2 MSTORE PUSH1 0x20 ADD PUSH1 0x1 DUP3 ADD SLOAD DUP2 MSTORE PUSH1 0x20 ADD PUSH1 0x2 DUP3 ADD SLOAD DUP2 MSTORE POP POP SWAP1 POP PUSH2 0xF12 PUSH8 0xDD654D7ABBAD7A8C PUSH1 0xC0 SHL PUSH2 0x24D8 JUMP JUMPDEST DUP1 PUSH1 0x0 ADD MLOAD DUP4 DUP4 DUP2 MLOAD DUP2 LT PUSH2 0xF2A JUMPI PUSH2 0xF29 PUSH2 0x296F JUMP JUMPDEST JUMPDEST PUSH1 0x20 MUL PUSH1 0x20 ADD ADD DUP2 DUP2 MSTORE POP POP POP DUP1 DUP1 PUSH2 0xF42 SWAP1 PUSH2 0x29CD JUMP JUMPDEST SWAP2 POP POP PUSH2 0xE7A JUMP JUMPDEST POP PUSH2 0xF5E PUSH7 0x788F924CDC84FA PUSH1 0xC0 SHL PUSH2 0x24D8 JUMP JUMPDEST PUSH2 0xF72 PUSH8 0xE31A41E11F81FDD8 PUSH1 0xC0 SHL PUSH2 0x24D8 JUMP JUMPDEST DUP1 SWAP2 POP POP SWAP1 JUMP JUMPDEST PUSH2 0xF8D PUSH8 0xD35B2B06D2781A46 PUSH1 0xC0 SHL PUSH2 0x24D8 JUMP JUMPDEST PUSH2 0xFA1 PUSH8 0xA71B114D54BACCD2 PUSH1 0xC0 SHL PUSH2 0x24D8 JUMP JUMPDEST PUSH2 0xFB5 PUSH8 0x80D3A7267BA4A195 PUSH1 0xC0 SHL PUSH2 0x24D8 JUMP JUMPDEST CALLER PUSH1 0x0 DUP1 PUSH2 0x100 EXP DUP2 SLOAD DUP2 PUSH20 0xFFFFFFFFFFFFFFFFFFFFFFFFFFFFFFFFFFFFFFFF MUL NOT AND SWAP1 DUP4 PUSH20 0xFFFFFFFFFFFFFFFFFFFFFFFFFFFFFFFFFFFFFFFF AND MUL OR SWAP1 SSTORE POP PUSH2 0x1009 PUSH8 0xD835BAC6C510895B PUSH1 0xC0 SHL PUSH2 0x24D8 JUMP JUMPDEST PUSH2 0x101D PUSH8 0xFF64FE53DDA82CA1 PUSH1 0xC0 SHL PUSH2 0x24D8 JUMP JUMPDEST PUSH2 0x1031 PUSH8 0x38CBE8A591BBE546 PUSH1 0xC0 SHL PUSH2 0x24D8 JUMP JUMPDEST DUP1 PUSH2 0x1046 PUSH8 0x1B63D913FE4BEF20 PUSH1 0xC0 SHL PUSH2 0x24D8 JUMP JUMPDEST PUSH2 0x105A PUSH8 0x3206E4713CDAEA3D PUSH1 0xC0 SHL PUSH2 0x24D8 JUMP JUMPDEST PUSH1 0x0 DUP1 PUSH1 0x14 PUSH2 0x100 EXP DUP2 SLOAD DUP2 PUSH1 0xFF MUL NOT AND SWAP1 DUP4 ISZERO ISZERO MUL OR SWAP1 SSTORE POP PUSH2 0x1088 PUSH8 0xDB5101F1CB1B6A43 PUSH1 0xC0 SHL PUSH2 0x24D8 JUMP JUMPDEST PUSH2 0x109C PUSH8 0xE517F19857AAF4EC PUSH1 0xC0 SHL PUSH2 0x24D8 JUMP JUMPDEST PUSH1 0x0 JUMPDEST PUSH1 0x6 DUP1 SLOAD SWAP1 POP DUP2 LT ISZERO PUSH2 0x119E JUMPI PUSH2 0x10C0 PUSH8 0x8175027F9E5D7885 PUSH1 0xC0 SHL PUSH2 0x24D8 JUMP JUMPDEST PUSH2 0x10D4 PUSH8 0xE7BB409859720F9D PUSH1 0xC0 SHL PUSH2 0x24D8 JUMP JUMPDEST DUP2 PUSH1 0x6 DUP3 DUP2 SLOAD DUP2 LT PUSH2 0x10E9 JUMPI PUSH2 0x10E8 PUSH2 0x296F JUMP JUMPDEST JUMPDEST SWAP1 PUSH1 0x0 MSTORE PUSH1 0x20 PUSH1 0x0 KECCAK256 SWAP1 PUSH1 0x3 MUL ADD PUSH1 0x0 ADD SLOAD SUB PUSH2 0x1177 JUMPI PUSH2 0x1114 PUSH8 0xB8D932B944DAE3E5 PUSH1 0xC0 SHL PUSH2 0x24D8 JUMP JUMPDEST PUSH2 0x1128 PUSH8 0x5E245B165053EC0F PUSH1 0xC0 SHL PUSH2 0x24D8 JUMP JUMPDEST DUP1 PUSH1 0x1 DUP2 SWAP1 SSTORE POP PUSH2 0x1143 PUSH8 0x667B42C414C40578 PUSH1 0xC0 SHL PUSH2 0x24D8 JUMP JUMPDEST PUSH1 0x1 PUSH1 0x0 PUSH1 0x14 PUSH2 0x100 EXP DUP2 SLOAD DUP2 PUSH1 0xFF MUL NOT AND SWAP1 DUP4 ISZERO ISZERO MUL OR SWAP1 SSTORE POP PUSH2 0x1172 PUSH8 0x375ADEE4E6E30E03 PUSH1 0xC0 SHL PUSH2 0x24D8 JUMP JUMPDEST PUSH2 0x119E JUMP JUMPDEST PUSH2 0x118B PUSH8 0xD5D125137D0C60F5 PUSH1 0xC0 SHL PUSH2 0x24D8 JUMP JUMPDEST DUP1 DUP1 PUSH2 0x1196 SWAP1 PUSH2 0x29CD JUMP JUMPDEST SWAP2 POP POP PUSH2 0x109F JUMP JUMPDEST POP PUSH2 0x11B3 PUSH8 0x89796E9C26151E4 PUSH1 0xC0 SHL PUSH2 0x24D8 JUMP JUMPDEST PUSH2 0x11C7 PUSH8 0xD7BEB570E0C2FDA9 PUSH1 0xC0 SHL PUSH2 0x24D8 JUMP JUMPDEST PUSH2 0x11DB PUSH8 0x40EF4D0742BDB7A8 PUSH1 0xC0 SHL PUSH2 0x24D8 JUMP JUMPDEST DUP2 PUSH2 0x11F0 PUSH8 0xE98C13E01DFFC611 PUSH1 0xC0 SHL PUSH2 0x24D8 JUMP JUMPDEST PUSH2 0x1204 PUSH8 0xA2D538F9C37EA364 PUSH1 0xC0 SHL PUSH2 0x24D8 JUMP JUMPDEST PUSH1 0x1 PUSH1 0x0 PUSH1 0x16 PUSH2 0x100 EXP DUP2 SLOAD DUP2 PUSH1 0xFF MUL NOT AND SWAP1 DUP4 ISZERO ISZERO MUL OR SWAP1 SSTORE POP PUSH2 0x1233 PUSH8 0x6D611C191F86FD27 PUSH1 0xC0 SHL PUSH2 0x24D8 JUMP JUMPDEST PUSH2 0x1247 PUSH8 0x637C22662BC7331E PUSH1 0xC0 SHL PUSH2 0x24D8 JUMP JUMPDEST PUSH1 0x0 JUMPDEST PUSH1 0x7 PUSH1 0x0 DUP1 PUSH1 0x0 SWAP1 SLOAD SWAP1 PUSH2 0x100 EXP SWAP1 DIV PUSH20 0xFFFFFFFFFFFFFFFFFFFFFFFFFFFFFFFFFFFFFFFF AND PUSH20 0xFFFFFFFFFFFFFFFFFFFFFFFFFFFFFFFFFFFFFFFF AND PUSH20 0xFFFFFFFFFFFFFFFFFFFFFFFFFFFFFFFFFFFFFFFF AND DUP2 MSTORE PUSH1 0x20 ADD SWAP1 DUP2 MSTORE PUSH1 0x20 ADD PUSH1 0x0 KECCAK256 DUP1 SLOAD SWAP1 POP DUP2 LT ISZERO PUSH2 0x13EA JUMPI PUSH2 0x12C9 PUSH8 0xB1A137AF7982C2C PUSH1 0xC0 SHL PUSH2 0x24D8 JUMP JUMPDEST PUSH2 0x12DD PUSH8 0xB5E32379FB252D75 PUSH1 0xC0 SHL PUSH2 0x24D8 JUMP JUMPDEST DUP2 PUSH1 0x7 PUSH1 0x0 DUP1 PUSH1 0x0 SWAP1 SLOAD SWAP1 PUSH2 0x100 EXP SWAP1 DIV PUSH20 0xFFFFFFFFFFFFFFFFFFFFFFFFFFFFFFFFFFFFFFFF AND PUSH20 0xFFFFFFFFFFFFFFFFFFFFFFFFFFFFFFFFFFFFFFFF AND PUSH20 0xFFFFFFFFFFFFFFFFFFFFFFFFFFFFFFFFFFFFFFFF AND DUP2 MSTORE PUSH1 0x20 ADD SWAP1 DUP2 MSTORE PUSH1 0x20 ADD PUSH1 0x0 KECCAK256 DUP3 DUP2 SLOAD DUP2 LT PUSH2 0x1350 JUMPI PUSH2 0x134F PUSH2 0x296F JUMP JUMPDEST JUMPDEST SWAP1 PUSH1 0x0 MSTORE PUSH1 0x20 PUSH1 0x0 KECCAK256 ADD SLOAD SUB PUSH2 0x13C2 JUMPI PUSH2 0x1374 PUSH8 0xE337AF49DD61432D PUSH1 0xC0 SHL PUSH2 0x24D8 JUMP JUMPDEST PUSH2 0x1388 PUSH8 0xD5B7AEFCDF882B9F PUSH1 0xC0 SHL PUSH2 0x24D8 JUMP JUMPDEST PUSH1 0x0 DUP1 PUSH1 0x16 PUSH2 0x100 EXP DUP2 SLOAD DUP2 PUSH1 0xFF MUL NOT AND SWAP1 DUP4 ISZERO ISZERO MUL OR SWAP1 SSTORE POP PUSH2 0x13B6 PUSH8 0xC14DADD2BC0F0649 PUSH1 0xC0 SHL PUSH2 0x24D8 JUMP JUMPDEST DUP1 PUSH1 0x2 DUP2 SWAP1 SSTORE POP PUSH2 0x13D7 JUMP JUMPDEST PUSH2 0x13D6 PUSH8 0xA1DE23C31546A49B PUSH1 0xC0 SHL PUSH2 0x24D8 JUMP JUMPDEST JUMPDEST DUP1 DUP1 PUSH2 0x13E2 SWAP1 PUSH2 0x29CD JUMP JUMPDEST SWAP2 POP POP PUSH2 0x124A JUMP JUMPDEST POP PUSH2 0x13FF PUSH8 0x2BD95160B81325ED PUSH1 0xC0 SHL PUSH2 0x24D8 JUMP JUMPDEST PUSH2 0x1413 PUSH8 0xA4E338CD584A67CC PUSH1 0xC0 SHL PUSH2 0x24D8 JUMP JUMPDEST PUSH2 0x1427 PUSH8 0x574DD814E55CB049 PUSH1 0xC0 SHL PUSH2 0x24D8 JUMP JUMPDEST DUP3 PUSH2 0x143C PUSH8 0xF79C4A40CFD6B39A PUSH1 0xC0 SHL PUSH2 0x24D8 JUMP JUMPDEST PUSH2 0x1450 PUSH8 0x6C94CF3C3799CF5F PUSH1 0xC0 SHL PUSH2 0x24D8 JUMP JUMPDEST PUSH2 0x1464 PUSH8 0xA6D3B062BCC07FC6 PUSH1 0xC0 SHL PUSH2 0x24D8 JUMP JUMPDEST PUSH1 0x0 PUSH1 0x6 PUSH1 0x1 SLOAD DUP2 SLOAD DUP2 LT PUSH2 0x147C JUMPI PUSH2 0x147B PUSH2 0x296F JUMP JUMPDEST JUMPDEST SWAP1 PUSH1 0x0 MSTORE PUSH1 0x20 PUSH1 0x0 KECCAK256 SWAP1 PUSH1 0x3 MUL ADD PUSH1 0x1 ADD SLOAD GT ISZERO PUSH2 0x14DC JUMPI PUSH2 0x14A8 PUSH8 0x4C1C237F75ADD5B4 PUSH1 0xC0 SHL PUSH2 0x24D8 JUMP JUMPDEST PUSH2 0x14BC PUSH8 0xBF515D5D5ADEE32 PUSH1 0xC0 SHL PUSH2 0x24D8 JUMP JUMPDEST PUSH1 0x1 PUSH1 0x0 PUSH1 0x15 PUSH2 0x100 EXP DUP2 SLOAD DUP2 PUSH1 0xFF MUL NOT AND SWAP1 DUP4 ISZERO ISZERO MUL OR SWAP1 SSTORE POP PUSH2 0x1553 JUMP JUMPDEST PUSH2 0x14F0 PUSH8 0xE9FD774C04067567 PUSH1 0xC0 SHL PUSH2 0x24D8 JUMP JUMPDEST PUSH2 0x1504 PUSH8 0xE25D1316A393247E PUSH1 0xC0 SHL PUSH2 0x24D8 JUMP JUMPDEST PUSH2 0x1518 PUSH8 0x1EDBED2253D084F9 PUSH1 0xC0 SHL PUSH2 0x24D8 JUMP JUMPDEST PUSH1 0x40 MLOAD PUSH32 0x8C379A000000000000000000000000000000000000000000000000000000000 DUP2 MSTORE PUSH1 0x4 ADD PUSH2 0x154A SWAP1 PUSH2 0x2D70 JUMP JUMPDEST PUSH1 0x40 MLOAD DUP1 SWAP2 SUB SWAP1 REVERT JUMPDEST PUSH2 0x1567 PUSH8 0x9CF473CF9350D87C PUSH1 0xC0 SHL PUSH2 0x24D8 JUMP JUMPDEST PUSH2 0x157B PUSH8 0xD9C5FEB814433A6 PUSH1 0xC0 SHL PUSH2 0x24D8 JUMP JUMPDEST PUSH2 0x158F PUSH8 0x3C120AB675F832E1 PUSH1 0xC0 SHL PUSH2 0x24D8 JUMP JUMPDEST PUSH2 0x15A3 PUSH8 0xE7DBB8F4DC5851F9 PUSH1 0xC0 SHL PUSH2 0x24D8 JUMP JUMPDEST PUSH2 0x15B7 PUSH8 0x8224B191B12564C7 PUSH1 0xC0 SHL PUSH2 0x24D8 JUMP JUMPDEST PUSH2 0x15CB PUSH8 0x92444C3A40CEFC79 PUSH1 0xC0 SHL PUSH2 0x24D8 JUMP JUMPDEST PUSH1 0x0 PUSH1 0x14 SWAP1 SLOAD SWAP1 PUSH2 0x100 EXP SWAP1 DIV PUSH1 0xFF AND PUSH2 0x161A JUMPI PUSH1 0x40 MLOAD PUSH32 0x8C379A000000000000000000000000000000000000000000000000000000000 DUP2 MSTORE PUSH1 0x4 ADD PUSH2 0x1611 SWAP1 PUSH2 0x2DDC JUMP JUMPDEST PUSH1 0x40 MLOAD DUP1 SWAP2 SUB SWAP1 REVERT JUMPDEST PUSH2 0x162E PUSH8 0x4BBDD11026C104A6 PUSH1 0xC0 SHL PUSH2 0x24D8 JUMP JUMPDEST PUSH2 0x1642 PUSH8 0x463ECB89EC9E07A2 PUSH1 0xC0 SHL PUSH2 0x24D8 JUMP JUMPDEST PUSH2 0x1656 PUSH8 0xDA12D15233D42FD1 PUSH1 0xC0 SHL PUSH2 0x24D8 JUMP JUMPDEST PUSH2 0x166A PUSH8 0x35C54738D8E226F7 PUSH1 0xC0 SHL PUSH2 0x24D8 JUMP JUMPDEST PUSH1 0x0 PUSH1 0x16 SWAP1 SLOAD SWAP1 PUSH2 0x100 EXP SWAP1 DIV PUSH1 0xFF AND PUSH2 0x16B9 JUMPI PUSH1 0x40 MLOAD PUSH32 0x8C379A000000000000000000000000000000000000000000000000000000000 DUP2 MSTORE PUSH1 0x4 ADD PUSH2 0x16B0 SWAP1 PUSH2 0x2E6E JUMP JUMPDEST PUSH1 0x40 MLOAD DUP1 SWAP2 SUB SWAP1 REVERT JUMPDEST PUSH2 0x16CD PUSH8 0xB82EBAAAEEC99AF4 PUSH1 0xC0 SHL PUSH2 0x24D8 JUMP JUMPDEST PUSH2 0x16E1 PUSH8 0xD8161FC9FC9F3399 PUSH1 0xC0 SHL PUSH2 0x24D8 JUMP JUMPDEST PUSH2 0x16F5 PUSH8 0x8618A69BCE71E323 PUSH1 0xC0 SHL PUSH2 0x24D8 JUMP JUMPDEST PUSH2 0x1709 PUSH8 0xABFE9563DBD5F20C PUSH1 0xC0 SHL PUSH2 0x24D8 JUMP JUMPDEST PUSH1 0x1 CALLVALUE EQ PUSH2 0x174C JUMPI PUSH1 0x40 MLOAD PUSH32 0x8C379A000000000000000000000000000000000000000000000000000000000 DUP2 MSTORE PUSH1 0x4 ADD PUSH2 0x1743 SWAP1 PUSH2 0x2F00 JUMP JUMPDEST PUSH1 0x40 MLOAD DUP1 SWAP2 SUB SWAP1 REVERT JUMPDEST PUSH2 0x1760 PUSH8 0x9F76EAE031509038 PUSH1 0xC0 SHL PUSH2 0x24D8 JUMP JUMPDEST PUSH2 0x1774 PUSH8 0xFB41CF792D015144 PUSH1 0xC0 SHL PUSH2 0x24D8 JUMP JUMPDEST PUSH2 0x1788 PUSH8 0x7D3AB12A3531901A PUSH1 0xC0 SHL PUSH2 0x24D8 JUMP JUMPDEST PUSH1 0x8 PUSH1 0x0 DUP6 DUP2 MSTORE PUSH1 0x20 ADD SWAP1 DUP2 MSTORE PUSH1 0x20 ADD PUSH1 0x0 KECCAK256 PUSH1 0x0 DUP1 SLOAD SWAP1 PUSH2 0x100 EXP SWAP1 DIV PUSH20 0xFFFFFFFFFFFFFFFFFFFFFFFFFFFFFFFFFFFFFFFF AND SWAP1 DUP1 PUSH1 0x1 DUP2 SLOAD ADD DUP1 DUP3 SSTORE DUP1 SWAP2 POP POP PUSH1 0x1 SWAP1 SUB SWAP1 PUSH1 0x0 MSTORE PUSH1 0x20 PUSH1 0x0 KECCAK256 ADD PUSH1 0x0 SWAP1 SWAP2 SWAP1 SWAP2 SWAP1 SWAP2 PUSH2 0x100 EXP DUP2 SLOAD DUP2 PUSH20 0xFFFFFFFFFFFFFFFFFFFFFFFFFFFFFFFFFFFFFFFF MUL NOT AND SWAP1 DUP4 PUSH20 0xFFFFFFFFFFFFFFFFFFFFFFFFFFFFFFFFFFFFFFFF AND MUL OR SWAP1 SSTORE POP PUSH2 0x1830 PUSH8 0x48A648B32E8E155D PUSH1 0xC0 SHL PUSH2 0x24D8 JUMP JUMPDEST PUSH2 0x1844 PUSH8 0x5A5E4A2A1C3B8C6C PUSH1 0xC0 SHL PUSH2 0x24D8 JUMP JUMPDEST PUSH1 0x7 PUSH1 0x0 DUP1 PUSH1 0x0 SWAP1 SLOAD SWAP1 PUSH2 0x100 EXP SWAP1 DIV PUSH20 0xFFFFFFFFFFFFFFFFFFFFFFFFFFFFFFFFFFFFFFFF AND PUSH20 0xFFFFFFFFFFFFFFFFFFFFFFFFFFFFFFFFFFFFFFFF AND PUSH20 0xFFFFFFFFFFFFFFFFFFFFFFFFFFFFFFFFFFFFFFFF AND DUP2 MSTORE PUSH1 0x20 ADD SWAP1 DUP2 MSTORE PUSH1 0x20 ADD PUSH1 0x0 KECCAK256 DUP5 SWAP1 DUP1 PUSH1 0x1 DUP2 SLOAD ADD DUP1 DUP3 SSTORE DUP1 SWAP2 POP POP PUSH1 0x1 SWAP1 SUB SWAP1 PUSH1 0x0 MSTORE PUSH1 0x20 PUSH1 0x0 KECCAK256 ADD PUSH1 0x0 SWAP1 SWAP2 SWAP1 SWAP2 SWAP1 SWAP2 POP SSTORE PUSH2 0x18DF PUSH8 0x6341F9F5652BE390 PUSH1 0xC0 SHL PUSH2 0x24D8 JUMP JUMPDEST PUSH1 0x1 PUSH1 0x6 PUSH1 0x1 SLOAD DUP2 SLOAD DUP2 LT PUSH2 0x18F7 JUMPI PUSH2 0x18F6 PUSH2 0x296F JUMP JUMPDEST JUMPDEST SWAP1 PUSH1 0x0 MSTORE PUSH1 0x20 PUSH1 0x0 KECCAK256 SWAP1 PUSH1 0x3 MUL ADD PUSH1 0x1 ADD PUSH1 0x0 DUP3 DUP3 SLOAD PUSH2 0x1917 SWAP2 SWAP1 PUSH2 0x2A92 JUMP JUMPDEST SWAP3 POP POP DUP2 SWAP1 SSTORE POP PUSH2 0x1932 PUSH8 0x5CF89C64ECCC064A PUSH1 0xC0 SHL PUSH2 0x24D8 JUMP JUMPDEST TIMESTAMP PUSH1 0x9 PUSH1 0x0 DUP7 DUP2 MSTORE PUSH1 0x20 ADD SWAP1 DUP2 MSTORE PUSH1 0x20 ADD PUSH1 0x0 KECCAK256 DUP2 SWAP1 SSTORE POP PUSH2 0x195E PUSH8 0x70795140956F7B4E PUSH1 0xC0 SHL PUSH2 0x24D8 JUMP JUMPDEST PUSH2 0x1972 PUSH8 0xBC87BE8C27B1252 PUSH1 0xC0 SHL PUSH2 0x24D8 JUMP JUMPDEST PUSH2 0x19E7 PUSH1 0x40 MLOAD DUP1 PUSH1 0x40 ADD PUSH1 0x40 MSTORE DUP1 PUSH1 0x7 DUP2 MSTORE PUSH1 0x20 ADD PUSH32 0x50726F6475637400000000000000000000000000000000000000000000000000 DUP2 MSTORE POP DUP6 PUSH1 0x40 MLOAD DUP1 PUSH1 0x40 ADD PUSH1 0x40 MSTORE DUP1 PUSH1 0x9 DUP2 MSTORE PUSH1 0x20 ADD PUSH32 0x7075726368617365640000000000000000000000000000000000000000000000 DUP2 MSTORE POP PUSH2 0x24DB JUMP JUMPDEST PUSH2 0x19FB PUSH8 0xCE0712741C4F9D5C PUSH1 0xC0 SHL PUSH2 0x24D8 JUMP JUMPDEST PUSH2 0x1A0F PUSH8 0x2362569532C5D42E PUSH1 0xC0 SHL PUSH2 0x24D8 JUMP JUMPDEST PUSH32 0x9AD4ECFAF27EA0CBEEBEE0ED92FE15C8A84975F1E3D45CCFC526D7751DCF98FF DUP5 PUSH1 0x0 DUP1 SLOAD SWAP1 PUSH2 0x100 EXP SWAP1 DIV PUSH20 0xFFFFFFFFFFFFFFFFFFFFFFFFFFFFFFFFFFFFFFFF AND PUSH1 0x40 MLOAD PUSH2 0x1A60 SWAP3 SWAP2 SWAP1 PUSH2 0x2CCC JUMP JUMPDEST PUSH1 0x40 MLOAD DUP1 SWAP2 SUB SWAP1 LOG1 POP POP POP POP JUMP JUMPDEST PUSH2 0x1A82 PUSH8 0x98901709689FE13C PUSH1 0xC0 SHL PUSH2 0x24D8 JUMP JUMPDEST PUSH2 0x1A96 PUSH8 0x310AE7EE12F7A62C PUSH1 0xC0 SHL PUSH2 0x24D8 JUMP JUMPDEST PUSH2 0x1AAA PUSH8 0x1E458EF64C3585E0 PUSH1 0xC0 SHL PUSH2 0x24D8 JUMP JUMPDEST PUSH2 0x1ABE PUSH8 0xAA62C17942FC6BFF PUSH1 0xC0 SHL PUSH2 0x24D8 JUMP JUMPDEST PUSH2 0x1AD2 PUSH8 0xE41BEBC542918970 PUSH1 0xC0 SHL PUSH2 0x24D8 JUMP JUMPDEST PUSH32 0x0 PUSH20 0xFFFFFFFFFFFFFFFFFFFFFFFFFFFFFFFFFFFFFFFF AND CALLER PUSH20 0xFFFFFFFFFFFFFFFFFFFFFFFFFFFFFFFFFFFFFFFF AND EQ PUSH2 0x1B60 JUMPI PUSH1 0x40 MLOAD PUSH32 0x8C379A000000000000000000000000000000000000000000000000000000000 DUP2 MSTORE PUSH1 0x4 ADD PUSH2 0x1B57 SWAP1 PUSH2 0x2F6C JUMP JUMPDEST PUSH1 0x40 MLOAD DUP1 SWAP2 SUB SWAP1 REVERT JUMPDEST PUSH2 0x1B74 PUSH8 0x35B2A19A52964C64 PUSH1 0xC0 SHL PUSH2 0x24D8 JUMP JUMPDEST PUSH2 0x1B88 PUSH8 0xA9FC9D3B39A4770F PUSH1 0xC0 SHL PUSH2 0x24D8 JUMP JUMPDEST PUSH2 0x1B9C PUSH8 0x640A37A4C0C0BA1D PUSH1 0xC0 SHL PUSH2 0x24D8 JUMP JUMPDEST PUSH2 0x1BB0 PUSH8 0xDCE8DBC67CB2DE9D PUSH1 0xC0 SHL PUSH2 0x24D8 JUMP JUMPDEST DUP2 PUSH2 0x1BC5 PUSH8 0x1B63D913FE4BEF20 PUSH1 0xC0 SHL PUSH2 0x24D8 JUMP JUMPDEST PUSH2 0x1BD9 PUSH8 0x3206E4713CDAEA3D PUSH1 0xC0 SHL PUSH2 0x24D8 JUMP JUMPDEST PUSH1 0x0 DUP1 PUSH1 0x14 PUSH2 0x100 EXP DUP2 SLOAD DUP2 PUSH1 0xFF MUL NOT AND SWAP1 DUP4 ISZERO ISZERO MUL OR SWAP1 SSTORE POP PUSH2 0x1C07 PUSH8 0xDB5101F1CB1B6A43 PUSH1 0xC0 SHL PUSH2 0x24D8 JUMP JUMPDEST PUSH2 0x1C1B PUSH8 0xE517F19857AAF4EC PUSH1 0xC0 SHL PUSH2 0x24D8 JUMP JUMPDEST PUSH1 0x0 JUMPDEST PUSH1 0x6 DUP1 SLOAD SWAP1 POP DUP2 LT ISZERO PUSH2 0x1D1D JUMPI PUSH2 0x1C3F PUSH8 0x8175027F9E5D7885 PUSH1 0xC0 SHL PUSH2 0x24D8 JUMP JUMPDEST PUSH2 0x1C53 PUSH8 0xE7BB409859720F9D PUSH1 0xC0 SHL PUSH2 0x24D8 JUMP JUMPDEST DUP2 PUSH1 0x6 DUP3 DUP2 SLOAD DUP2 LT PUSH2 0x1C68 JUMPI PUSH2 0x1C67 PUSH2 0x296F JUMP JUMPDEST JUMPDEST SWAP1 PUSH1 0x0 MSTORE PUSH1 0x20 PUSH1 0x0 KECCAK256 SWAP1 PUSH1 0x3 MUL ADD PUSH1 0x0 ADD SLOAD SUB PUSH2 0x1CF6 JUMPI PUSH2 0x1C93 PUSH8 0xB8D932B944DAE3E5 PUSH1 0xC0 SHL PUSH2 0x24D8 JUMP JUMPDEST PUSH2 0x1CA7 PUSH8 0x5E245B165053EC0F PUSH1 0xC0 SHL PUSH2 0x24D8 JUMP JUMPDEST DUP1 PUSH1 0x1 DUP2 SWAP1 SSTORE POP PUSH2 0x1CC2 PUSH8 0x667B42C414C40578 PUSH1 0xC0 SHL PUSH2 0x24D8 JUMP JUMPDEST PUSH1 0x1 PUSH1 0x0 PUSH1 0x14 PUSH2 0x100 EXP DUP2 SLOAD DUP2 PUSH1 0xFF MUL NOT AND SWAP1 DUP4 ISZERO ISZERO MUL OR SWAP1 SSTORE POP PUSH2 0x1CF1 PUSH8 0x375ADEE4E6E30E03 PUSH1 0xC0 SHL PUSH2 0x24D8 JUMP JUMPDEST PUSH2 0x1D1D JUMP JUMPDEST PUSH2 0x1D0A PUSH8 0xD5D125137D0C60F5 PUSH1 0xC0 SHL PUSH2 0x24D8 JUMP JUMPDEST DUP1 DUP1 PUSH2 0x1D15 SWAP1 PUSH2 0x29CD JUMP JUMPDEST SWAP2 POP POP PUSH2 0x1C1E JUMP JUMPDEST POP PUSH2 0x1D32 PUSH8 0x89796E9C26151E4 PUSH1 0xC0 SHL PUSH2 0x24D8 JUMP JUMPDEST PUSH2 0x1D46 PUSH8 0xFB5BE0BC97A9263B PUSH1 0xC0 SHL PUSH2 0x24D8 JUMP JUMPDEST PUSH2 0x1D5A PUSH8 0x5A16F895AA84A47F PUSH1 0xC0 SHL PUSH2 0x24D8 JUMP JUMPDEST PUSH2 0x1D6E PUSH8 0x9F250C9F0C178665 PUSH1 0xC0 SHL PUSH2 0x24D8 JUMP JUMPDEST PUSH2 0x1D82 PUSH8 0xA51EDA28D665CBC PUSH1 0xC0 SHL PUSH2 0x24D8 JUMP JUMPDEST PUSH1 0x1 ISZERO ISZERO PUSH1 0x0 PUSH1 0x14 SWAP1 SLOAD SWAP1 PUSH2 0x100 EXP SWAP1 DIV PUSH1 0xFF AND ISZERO ISZERO SUB PUSH2 0x1F43 JUMPI PUSH2 0x1DB1 PUSH8 0xF17455A678C64CFB PUSH1 0xC0 SHL PUSH2 0x24D8 JUMP JUMPDEST PUSH2 0x1DC5 PUSH8 0x93B8E4760F1E3005 PUSH1 0xC0 SHL PUSH2 0x24D8 JUMP JUMPDEST DUP2 PUSH1 0x6 PUSH1 0x1 SLOAD DUP2 SLOAD DUP2 LT PUSH2 0x1DDC JUMPI PUSH2 0x1DDB PUSH2 0x296F JUMP JUMPDEST JUMPDEST SWAP1 PUSH1 0x0 MSTORE PUSH1 0x20 PUSH1 0x0 KECCAK256 SWAP1 PUSH1 0x3 MUL ADD PUSH1 0x1 ADD DUP2 SWAP1 SSTORE POP PUSH2 0x1E05 PUSH8 0xD88861685FC97CF9 PUSH1 0xC0 SHL PUSH2 0x24D8 JUMP JUMPDEST PUSH2 0x1E19 PUSH8 0xA3E991FB8B8F51CC PUSH1 0xC0 SHL PUSH2 0x24D8 JUMP JUMPDEST PUSH2 0x1EDD PUSH1 0x40 MLOAD DUP1 PUSH1 0x40 ADD PUSH1 0x40 MSTORE DUP1 PUSH1 0x8 DUP2 MSTORE PUSH1 0x20 ADD PUSH32 0x5570646174696E67000000000000000000000000000000000000000000000000 DUP2 MSTORE POP PUSH1 0x6 PUSH1 0x1 SLOAD DUP2 SLOAD DUP2 LT PUSH2 0x1E68 JUMPI PUSH2 0x1E67 PUSH2 0x296F JUMP JUMPDEST JUMPDEST SWAP1 PUSH1 0x0 MSTORE PUSH1 0x20 PUSH1 0x0 KECCAK256 SWAP1 PUSH1 0x3 MUL ADD PUSH1 0x0 ADD SLOAD PUSH1 0x40 MLOAD DUP1 PUSH1 0x40 ADD PUSH1 0x40 MSTORE DUP1 PUSH1 0x5 DUP2 MSTORE PUSH1 0x20 ADD PUSH32 0x746F206265000000000000000000000000000000000000000000000000000000 DUP2 MSTORE POP PUSH1 0x6 PUSH1 0x1 SLOAD DUP2 SLOAD DUP2 LT PUSH2 0x1EC6 JUMPI PUSH2 0x1EC5 PUSH2 0x296F JUMP JUMPDEST JUMPDEST SWAP1 PUSH1 0x0 MSTORE PUSH1 0x20 PUSH1 0x0 KECCAK256 SWAP1 PUSH1 0x3 MUL ADD PUSH1 0x1 ADD SLOAD PUSH2 0x257A JUMP JUMPDEST PUSH2 0x1EF1 PUSH8 0xF621D0D6884A603F PUSH1 0xC0 SHL PUSH2 0x24D8 JUMP JUMPDEST PUSH2 0x1F05 PUSH8 0x52EF1D8BDF41B502 PUSH1 0xC0 SHL PUSH2 0x24D8 JUMP JUMPDEST PUSH32 0x1A58B4C176A67828EBE2456BC637AF85E69B115BE11597E049B0669D13BEA999 DUP4 DUP4 PUSH1 0x40 MLOAD PUSH2 0x1F36 SWAP3 SWAP2 SWAP1 PUSH2 0x2F8C JUMP JUMPDEST PUSH1 0x40 MLOAD DUP1 SWAP2 SUB SWAP1 LOG1 PUSH2 0x20E6 JUMP JUMPDEST PUSH2 0x1F57 PUSH8 0x5CB045AFC6FBB8F PUSH1 0xC0 SHL PUSH2 0x24D8 JUMP JUMPDEST PUSH2 0x1F6B PUSH8 0xF76E16B51FE82938 PUSH1 0xC0 SHL PUSH2 0x24D8 JUMP JUMPDEST PUSH2 0x1F7F PUSH8 0x280B9EE9A0C42C8F PUSH1 0xC0 SHL PUSH2 0x24D8 JUMP JUMPDEST PUSH1 0x6 PUSH1 0x40 MLOAD DUP1 PUSH1 0x60 ADD PUSH1 0x40 MSTORE DUP1 DUP6 DUP2 MSTORE PUSH1 0x20 ADD DUP5 DUP2 MSTORE PUSH1 0x20 ADD PUSH1 0x1 DUP2 MSTORE POP SWAP1 DUP1 PUSH1 0x1 DUP2 SLOAD ADD DUP1 DUP3 SSTORE DUP1 SWAP2 POP POP PUSH1 0x1 SWAP1 SUB SWAP1 PUSH1 0x0 MSTORE PUSH1 0x20 PUSH1 0x0 KECCAK256 SWAP1 PUSH1 0x3 MUL ADD PUSH1 0x0 SWAP1 SWAP2 SWAP1 SWAP2 SWAP1 SWAP2 POP PUSH1 0x0 DUP3 ADD MLOAD DUP2 PUSH1 0x0 ADD SSTORE PUSH1 0x20 DUP3 ADD MLOAD DUP2 PUSH1 0x1 ADD SSTORE PUSH1 0x40 DUP3 ADD MLOAD DUP2 PUSH1 0x2 ADD SSTORE POP POP PUSH2 0x1FFA PUSH8 0xE67074B03A941F26 PUSH1 0xC0 SHL PUSH2 0x24D8 JUMP JUMPDEST PUSH2 0x200E PUSH8 0x2642FE52FACD8DED PUSH1 0xC0 SHL PUSH2 0x24D8 JUMP JUMPDEST PUSH32 0x2A60815E9D2622A909B3C2B731FA879A529C93B5FECDB1CFEA183695707572CC DUP4 DUP4 PUSH1 0x40 MLOAD PUSH2 0x203F SWAP3 SWAP2 SWAP1 PUSH2 0x2F8C JUMP JUMPDEST PUSH1 0x40 MLOAD DUP1 SWAP2 SUB SWAP1 LOG1 PUSH2 0x205B PUSH8 0xE68B482309117665 PUSH1 0xC0 SHL PUSH2 0x24D8 JUMP JUMPDEST PUSH2 0x206F PUSH8 0xB3B40EFF0D57B247 PUSH1 0xC0 SHL PUSH2 0x24D8 JUMP JUMPDEST PUSH2 0x20E5 PUSH1 0x40 MLOAD DUP1 PUSH1 0x40 ADD PUSH1 0x40 MSTORE DUP1 PUSH1 0x10 DUP2 MSTORE PUSH1 0x20 ADD PUSH32 0x6372656174696E672070726F6475637400000000000000000000000000000000 DUP2 MSTORE POP DUP5 PUSH1 0x40 MLOAD DUP1 PUSH1 0x40 ADD PUSH1 0x40 MSTORE DUP1 PUSH1 0x19 DUP2 MSTORE PUSH1 0x20 ADD PUSH32 0x77697468207072696365203120616E64207175616E7469747900000000000000 DUP2 MSTORE POP DUP6 PUSH2 0x257A JUMP JUMPDEST JUMPDEST POP POP POP JUMP JUMPDEST PUSH1 0x60 PUSH2 0x2101 PUSH8 0x6969F12E362E3B60 PUSH1 0xC0 SHL PUSH2 0x24D8 JUMP JUMPDEST PUSH2 0x2115 PUSH8 0x91963C5846087574 PUSH1 0xC0 SHL PUSH2 0x24D8 JUMP JUMPDEST PUSH2 0x2129 PUSH8 0xD76A140A3EC48AA9 PUSH1 0xC0 SHL PUSH2 0x24D8 JUMP JUMPDEST PUSH1 0x0 PUSH1 0x8 PUSH1 0x0 DUP5 DUP2 MSTORE PUSH1 0x20 ADD SWAP1 DUP2 MSTORE PUSH1 0x20 ADD PUSH1 0x0 KECCAK256 DUP1 SLOAD SWAP1 POP PUSH8 0xFFFFFFFFFFFFFFFF DUP2 GT ISZERO PUSH2 0x215B JUMPI PUSH2 0x215A PUSH2 0x2CF5 JUMP JUMPDEST JUMPDEST PUSH1 0x40 MLOAD SWAP1 DUP1 DUP3 MSTORE DUP1 PUSH1 0x20 MUL PUSH1 0x20 ADD DUP3 ADD PUSH1 0x40 MSTORE DUP1 ISZERO PUSH2 0x2189 JUMPI DUP2 PUSH1 0x20 ADD PUSH1 0x20 DUP3 MUL DUP1 CALLDATASIZE DUP4 CALLDATACOPY DUP1 DUP3 ADD SWAP2 POP POP SWAP1 POP JUMPDEST POP SWAP1 POP PUSH2 0x21A0 PUSH8 0x74054AC3BABA192 PUSH1 0xC0 SHL PUSH2 0x24D8 JUMP JUMPDEST PUSH2 0x21B4 PUSH8 0x13D42B0A39425A3F PUSH1 0xC0 SHL PUSH2 0x24D8 JUMP JUMPDEST PUSH1 0x0 JUMPDEST PUSH1 0x8 PUSH1 0x0 DUP6 DUP2 MSTORE PUSH1 0x20 ADD SWAP1 DUP2 MSTORE PUSH1 0x20 ADD PUSH1 0x0 KECCAK256 DUP1 SLOAD SWAP1 POP DUP2 LT ISZERO PUSH2 0x22C7 JUMPI PUSH2 0x21E9 PUSH8 0xA80E1F241B517155 PUSH1 0xC0 SHL PUSH2 0x24D8 JUMP JUMPDEST PUSH2 0x21FD PUSH8 0xF309334221BE3A3C PUSH1 0xC0 SHL PUSH2 0x24D8 JUMP JUMPDEST PUSH1 0x0 PUSH1 0x8 PUSH1 0x0 DUP7 DUP2 MSTORE PUSH1 0x20 ADD SWAP1 DUP2 MSTORE PUSH1 0x20 ADD PUSH1 0x0 KECCAK256 DUP3 DUP2 SLOAD DUP2 LT PUSH2 0x2224 JUMPI PUSH2 0x2223 PUSH2 0x296F JUMP JUMPDEST JUMPDEST SWAP1 PUSH1 0x0 MSTORE PUSH1 0x20 PUSH1 0x0 KECCAK256 ADD PUSH1 0x0 SWAP1 SLOAD SWAP1 PUSH2 0x100 EXP SWAP1 DIV PUSH20 0xFFFFFFFFFFFFFFFFFFFFFFFFFFFFFFFFFFFFFFFF AND SWAP1 POP PUSH2 0x2265 PUSH8 0x848CE37C299EEAF3 PUSH1 0xC0 SHL PUSH2 0x24D8 JUMP JUMPDEST DUP1 DUP4 DUP4 DUP2 MLOAD DUP2 LT PUSH2 0x2279 JUMPI PUSH2 0x2278 PUSH2 0x296F JUMP JUMPDEST JUMPDEST PUSH1 0x20 MUL PUSH1 0x20 ADD ADD SWAP1 PUSH20 0xFFFFFFFFFFFFFFFFFFFFFFFFFFFFFFFFFFFFFFFF AND SWAP1 DUP2 PUSH20 0xFFFFFFFFFFFFFFFFFFFFFFFFFFFFFFFFFFFFFFFF AND DUP2 MSTORE POP POP POP DUP1 DUP1 PUSH2 0x22BF SWAP1 PUSH2 0x29CD JUMP JUMPDEST SWAP2 POP POP PUSH2 0x21B7 JUMP JUMPDEST POP PUSH2 0x22DC PUSH8 0x6458689BD922D946 PUSH1 0xC0 SHL PUSH2 0x24D8 JUMP JUMPDEST PUSH2 0x22F0 PUSH8 0x32882ADAB86D3CF8 PUSH1 0xC0 SHL PUSH2 0x24D8 JUMP JUMPDEST DUP1 SWAP2 POP POP SWAP2 SWAP1 POP JUMP JUMPDEST PUSH1 0x60 PUSH2 0x230F PUSH8 0x96455EAA468DD6F6 PUSH1 0xC0 SHL PUSH2 0x24D8 JUMP JUMPDEST PUSH2 0x2323 PUSH8 0xCCCE32B9CB8532C6 PUSH1 0xC0 SHL PUSH2 0x24D8 JUMP JUMPDEST PUSH2 0x2337 PUSH8 0xE8FC8314ECBCA658 PUSH1 0xC0 SHL PUSH2 0x24D8 JUMP JUMPDEST PUSH1 0x0 PUSH1 0x6 DUP1 SLOAD SWAP1 POP PUSH8 0xFFFFFFFFFFFFFFFF DUP2 GT ISZERO PUSH2 0x2358 JUMPI PUSH2 0x2357 PUSH2 0x2CF5 JUMP JUMPDEST JUMPDEST PUSH1 0x40 MLOAD SWAP1 DUP1 DUP3 MSTORE DUP1 PUSH1 0x20 MUL PUSH1 0x20 ADD DUP3 ADD PUSH1 0x40 MSTORE DUP1 ISZERO PUSH2 0x2386 JUMPI DUP2 PUSH1 0x20 ADD PUSH1 0x20 DUP3 MUL DUP1 CALLDATASIZE DUP4 CALLDATACOPY DUP1 DUP3 ADD SWAP2 POP POP SWAP1 POP JUMPDEST POP SWAP1 POP PUSH2 0x239D PUSH8 0x9B74B9D4A1E4735 PUSH1 0xC0 SHL PUSH2 0x24D8 JUMP JUMPDEST PUSH2 0x23B1 PUSH8 0xD86849CE2BCA45E3 PUSH1 0xC0 SHL PUSH2 0x24D8 JUMP JUMPDEST PUSH1 0x0 JUMPDEST PUSH1 0x6 DUP1 SLOAD SWAP1 POP DUP2 LT ISZERO PUSH2 0x2484 JUMPI PUSH2 0x23D5 PUSH8 0x93421AB287723805 PUSH1 0xC0 SHL PUSH2 0x24D8 JUMP JUMPDEST PUSH2 0x23E9 PUSH8 0x7F9FF4409DCE963B PUSH1 0xC0 SHL PUSH2 0x24D8 JUMP JUMPDEST PUSH1 0x0 PUSH1 0x6 DUP3 DUP2 SLOAD DUP2 LT PUSH2 0x23FF JUMPI PUSH2 0x23FE PUSH2 0x296F JUMP JUMPDEST JUMPDEST SWAP1 PUSH1 0x0 MSTORE PUSH1 0x20 PUSH1 0x0 KECCAK256 SWAP1 PUSH1 0x3 MUL ADD PUSH1 0x40 MLOAD DUP1 PUSH1 0x60 ADD PUSH1 0x40 MSTORE SWAP1 DUP2 PUSH1 0x0 DUP3 ADD SLOAD DUP2 MSTORE PUSH1 0x20 ADD PUSH1 0x1 DUP3 ADD SLOAD DUP2 MSTORE PUSH1 0x20 ADD PUSH1 0x2 DUP3 ADD SLOAD DUP2 MSTORE POP POP SWAP1 POP PUSH2 0x244C PUSH8 0x8A1C6FE954D0F055 PUSH1 0xC0 SHL PUSH2 0x24D8 JUMP JUMPDEST DUP1 PUSH1 0x20 ADD MLOAD DUP4 DUP4 DUP2 MLOAD DUP2 LT PUSH2 0x2464 JUMPI PUSH2 0x2463 PUSH2 0x296F JUMP JUMPDEST JUMPDEST PUSH1 0x20 MUL PUSH1 0x20 ADD ADD DUP2 DUP2 MSTORE POP POP POP DUP1 DUP1 PUSH2 0x247C SWAP1 PUSH2 0x29CD JUMP JUMPDEST SWAP2 POP POP PUSH2 0x23B4 JUMP JUMPDEST POP PUSH2 0x2499 PUSH8 0xDA6879EDB4E41DBD PUSH1 0xC0 SHL PUSH2 0x24D8 JUMP JUMPDEST PUSH2 0x24AD PUSH8 0xD56AC43B55F3824F PUSH1 0xC0 SHL PUSH2 0x24D8 JUMP JUMPDEST DUP1 SWAP2 POP POP SWAP1 JUMP JUMPDEST PUSH32 0x0 DUP2 JUMP JUMPDEST POP JUMP JUMPDEST PUSH2 0x2575 DUP4 DUP4 DUP4 PUSH1 0x40 MLOAD PUSH1 0x24 ADD PUSH2 0x24F3 SWAP4 SWAP3 SWAP2 SWAP1 PUSH2 0x3034 JUMP JUMPDEST PUSH1 0x40 MLOAD PUSH1 0x20 DUP2 DUP4 SUB SUB DUP2 MSTORE SWAP1 PUSH1 0x40 MSTORE PUSH32 0x5970E08900000000000000000000000000000000000000000000000000000000 PUSH28 0xFFFFFFFFFFFFFFFFFFFFFFFFFFFFFFFFFFFFFFFFFFFFFFFFFFFFFFFF NOT AND PUSH1 0x20 DUP3 ADD DUP1 MLOAD PUSH28 0xFFFFFFFFFFFFFFFFFFFFFFFFFFFFFFFFFFFFFFFFFFFFFFFFFFFFFFFF DUP4 DUP2 DUP4 AND OR DUP4 MSTORE POP POP POP POP PUSH2 0x261C JUMP JUMPDEST POP POP POP JUMP JUMPDEST PUSH2 0x2616 DUP5 DUP5 DUP5 DUP5 PUSH1 0x40 MLOAD PUSH1 0x24 ADD PUSH2 0x2594 SWAP5 SWAP4 SWAP3 SWAP2 SWAP1 PUSH2 0x3079 JUMP JUMPDEST PUSH1 0x40 MLOAD PUSH1 0x20 DUP2 DUP4 SUB SUB DUP2 MSTORE SWAP1 PUSH1 0x40 MSTORE PUSH32 0xC67EA9D100000000000000000000000000000000000000000000000000000000 PUSH28 0xFFFFFFFFFFFFFFFFFFFFFFFFFFFFFFFFFFFFFFFFFFFFFFFFFFFFFFFF NOT AND PUSH1 0x20 DUP3 ADD DUP1 MLOAD PUSH28 0xFFFFFFFFFFFFFFFFFFFFFFFFFFFFFFFFFFFFFFFFFFFFFFFFFFFFFFFF DUP4 DUP2 DUP4 AND OR DUP4 MSTORE POP POP POP POP PUSH2 0x261C JUMP JUMPDEST POP POP POP POP JUMP JUMPDEST PUSH1 0x0 DUP2 MLOAD SWAP1 POP PUSH1 0x0 PUSH11 0x636F6E736F6C652E6C6F67 SWAP1 POP PUSH1 0x20 DUP4 ADD PUSH1 0x0 DUP1 DUP5 DUP4 DUP6 GAS STATICCALL POP POP POP POP POP JUMP JUMPDEST PUSH1 0x0 DUP1 REVERT JUMPDEST PUSH1 0x0 DUP2 SWAP1 POP SWAP2 SWAP1 POP JUMP JUMPDEST PUSH2 0x265D DUP2 PUSH2 0x264A JUMP JUMPDEST DUP2 EQ PUSH2 0x2668 JUMPI PUSH1 0x0 DUP1 REVERT JUMPDEST POP JUMP JUMPDEST PUSH1 0x0 DUP2 CALLDATALOAD SWAP1 POP PUSH2 0x267A DUP2 PUSH2 0x2654 JUMP JUMPDEST SWAP3 SWAP2 POP POP JUMP JUMPDEST PUSH1 0x0 PUSH1 0x20 DUP3 DUP5 SUB SLT ISZERO PUSH2 0x2696 JUMPI PUSH2 0x2695 PUSH2 0x2645 JUMP JUMPDEST JUMPDEST PUSH1 0x0 PUSH2 0x26A4 DUP5 DUP3 DUP6 ADD PUSH2 0x266B JUMP JUMPDEST SWAP2 POP POP SWAP3 SWAP2 POP POP JUMP JUMPDEST PUSH2 0x26B6 DUP2 PUSH2 0x264A JUMP JUMPDEST DUP3 MSTORE POP POP JUMP JUMPDEST PUSH1 0x0 PUSH1 0x20 DUP3 ADD SWAP1 POP PUSH2 0x26D1 PUSH1 0x0 DUP4 ADD DUP5 PUSH2 0x26AD JUMP JUMPDEST SWAP3 SWAP2 POP POP JUMP JUMPDEST PUSH1 0x0 PUSH20 0xFFFFFFFFFFFFFFFFFFFFFFFFFFFFFFFFFFFFFFFF DUP3 AND SWAP1 POP SWAP2 SWAP1 POP JUMP JUMPDEST PUSH1 0x0 PUSH2 0x2702 DUP3 PUSH2 0x26D7 JUMP JUMPDEST SWAP1 POP SWAP2 SWAP1 POP JUMP JUMPDEST PUSH2 0x2712 DUP2 PUSH2 0x26F7 JUMP JUMPDEST DUP3 MSTORE POP POP JUMP JUMPDEST PUSH1 0x0 PUSH1 0x20 DUP3 ADD SWAP1 POP PUSH2 0x272D PUSH1 0x0 DUP4 ADD DUP5 PUSH2 0x2709 JUMP JUMPDEST SWAP3 SWAP2 POP POP JUMP JUMPDEST PUSH1 0x0 DUP2 MLOAD SWAP1 POP SWAP2 SWAP1 POP JUMP JUMPDEST PUSH1 0x0 DUP3 DUP3 MSTORE PUSH1 0x20 DUP3 ADD SWAP1 POP SWAP3 SWAP2 POP POP JUMP JUMPDEST PUSH1 0x0 DUP2 SWAP1 POP PUSH1 0x20 DUP3 ADD SWAP1 POP SWAP2 SWAP1 POP JUMP JUMPDEST PUSH2 0x2768 DUP2 PUSH2 0x264A JUMP JUMPDEST DUP3 MSTORE POP POP JUMP JUMPDEST PUSH1 0x0 PUSH2 0x277A DUP4 DUP4 PUSH2 0x275F JUMP JUMPDEST PUSH1 0x20 DUP4 ADD SWAP1 POP SWAP3 SWAP2 POP POP JUMP JUMPDEST PUSH1 0x0 PUSH1 0x20 DUP3 ADD SWAP1 POP SWAP2 SWAP1 POP JUMP JUMPDEST PUSH1 0x0 PUSH2 0x279E DUP3 PUSH2 0x2733 JUMP JUMPDEST PUSH2 0x27A8 DUP2 DUP6 PUSH2 0x273E JUMP JUMPDEST SWAP4 POP PUSH2 0x27B3 DUP4 PUSH2 0x274F JUMP JUMPDEST DUP1 PUSH1 0x0 JUMPDEST DUP4 DUP2 LT ISZERO PUSH2 0x27E4 JUMPI DUP2 MLOAD PUSH2 0x27CB DUP9 DUP3 PUSH2 0x276E JUMP JUMPDEST SWAP8 POP PUSH2 0x27D6 DUP4 PUSH2 0x2786 JUMP JUMPDEST SWAP3 POP POP PUSH1 0x1 DUP2 ADD SWAP1 POP PUSH2 0x27B7 JUMP JUMPDEST POP DUP6 SWAP4 POP POP POP POP SWAP3 SWAP2 POP POP JUMP JUMPDEST PUSH1 0x0 PUSH1 0x20 DUP3 ADD SWAP1 POP DUP2 DUP2 SUB PUSH1 0x0 DUP4 ADD MSTORE PUSH2 0x280B DUP2 DUP5 PUSH2 0x2793 JUMP JUMPDEST SWAP1 POP SWAP3 SWAP2 POP POP JUMP JUMPDEST PUSH1 0x0 DUP1 PUSH1 0x40 DUP4 DUP6 SUB SLT ISZERO PUSH2 0x282A JUMPI PUSH2 0x2829 PUSH2 0x2645 JUMP JUMPDEST JUMPDEST PUSH1 0x0 PUSH2 0x2838 DUP6 DUP3 DUP7 ADD PUSH2 0x266B JUMP JUMPDEST SWAP3 POP POP PUSH1 0x20 PUSH2 0x2849 DUP6 DUP3 DUP7 ADD PUSH2 0x266B JUMP JUMPDEST SWAP2 POP POP SWAP3 POP SWAP3 SWAP1 POP JUMP JUMPDEST PUSH1 0x0 DUP2 MLOAD SWAP1 POP SWAP2 SWAP1 POP JUMP JUMPDEST PUSH1 0x0 DUP3 DUP3 MSTORE PUSH1 0x20 DUP3 ADD SWAP1 POP SWAP3 SWAP2 POP POP JUMP JUMPDEST PUSH1 0x0 DUP2 SWAP1 POP PUSH1 0x20 DUP3 ADD SWAP1 POP SWAP2 SWAP1 POP JUMP JUMPDEST PUSH1 0x0 PUSH2 0x288A DUP3 PUSH2 0x26D7 JUMP JUMPDEST SWAP1 POP SWAP2 SWAP1 POP JUMP JUMPDEST PUSH2 0x289A DUP2 PUSH2 0x287F JUMP JUMPDEST DUP3 MSTORE POP POP JUMP JUMPDEST PUSH1 0x0 PUSH2 0x28AC DUP4 DUP4 PUSH2 0x2891 JUMP JUMPDEST PUSH1 0x20 DUP4 ADD SWAP1 POP SWAP3 SWAP2 POP POP JUMP JUMPDEST PUSH1 0x0 PUSH1 0x20 DUP3 ADD SWAP1 POP SWAP2 SWAP1 POP JUMP JUMPDEST PUSH1 0x0 PUSH2 0x28D0 DUP3 PUSH2 0x2853 JUMP JUMPDEST PUSH2 0x28DA DUP2 DUP6 PUSH2 0x285E JUMP JUMPDEST SWAP4 POP PUSH2 0x28E5 DUP4 PUSH2 0x286F JUMP JUMPDEST DUP1 PUSH1 0x0 JUMPDEST DUP4 DUP2 LT ISZERO PUSH2 0x2916 JUMPI DUP2 MLOAD PUSH2 0x28FD DUP9 DUP3 PUSH2 0x28A0 JUMP JUMPDEST SWAP8 POP PUSH2 0x2908 DUP4 PUSH2 0x28B8 JUMP JUMPDEST SWAP3 POP POP PUSH1 0x1 DUP2 ADD SWAP1 POP PUSH2 0x28E9 JUMP JUMPDEST POP DUP6 SWAP4 POP POP POP POP SWAP3 SWAP2 POP POP JUMP JUMPDEST PUSH1 0x0 PUSH1 0x20 DUP3 ADD SWAP1 POP DUP2 DUP2 SUB PUSH1 0x0 DUP4 ADD MSTORE PUSH2 0x293D DUP2 DUP5 PUSH2 0x28C5 JUMP JUMPDEST SWAP1 POP SWAP3 SWAP2 POP POP JUMP JUMPDEST PUSH2 0x294E DUP2 PUSH2 0x287F JUMP JUMPDEST DUP3 MSTORE POP POP JUMP JUMPDEST PUSH1 0x0 PUSH1 0x20 DUP3 ADD SWAP1 POP PUSH2 0x2969 PUSH1 0x0 DUP4 ADD DUP5 PUSH2 0x2945 JUMP JUMPDEST SWAP3 SWAP2 POP POP JUMP JUMPDEST PUSH32 0x4E487B7100000000000000000000000000000000000000000000000000000000 PUSH1 0x0 MSTORE PUSH1 0x32 PUSH1 0x4 MSTORE PUSH1 0x24 PUSH1 0x0 REVERT JUMPDEST PUSH32 0x4E487B7100000000000000000000000000000000000000000000000000000000 PUSH1 0x0 MSTORE PUSH1 0x11 PUSH1 0x4 MSTORE PUSH1 0x24 PUSH1 0x0 REVERT JUMPDEST PUSH1 0x0 PUSH2 0x29D8 DUP3 PUSH2 0x264A JUMP JUMPDEST SWAP2 POP PUSH32 0xFFFFFFFFFFFFFFFFFFFFFFFFFFFFFFFFFFFFFFFFFFFFFFFFFFFFFFFFFFFFFFFF DUP3 SUB PUSH2 0x2A0A JUMPI PUSH2 0x2A09 PUSH2 0x299E JUMP JUMPDEST JUMPDEST PUSH1 0x1 DUP3 ADD SWAP1 POP SWAP2 SWAP1 POP JUMP JUMPDEST PUSH1 0x0 DUP3 DUP3 MSTORE PUSH1 0x20 DUP3 ADD SWAP1 POP SWAP3 SWAP2 POP POP JUMP JUMPDEST PUSH32 0x596F7520646964206E6F742062757920746869732070726F6475637400000000 PUSH1 0x0 DUP3 ADD MSTORE POP JUMP JUMPDEST PUSH1 0x0 PUSH2 0x2A5C PUSH1 0x1C DUP4 PUSH2 0x2A15 JUMP JUMPDEST SWAP2 POP PUSH2 0x2A67 DUP3 PUSH2 0x2A26 JUMP JUMPDEST PUSH1 0x20 DUP3 ADD SWAP1 POP SWAP2 SWAP1 POP JUMP JUMPDEST PUSH1 0x0 PUSH1 0x20 DUP3 ADD SWAP1 POP DUP2 DUP2 SUB PUSH1 0x0 DUP4 ADD MSTORE PUSH2 0x2A8B DUP2 PUSH2 0x2A4F JUMP JUMPDEST SWAP1 POP SWAP2 SWAP1 POP JUMP JUMPDEST PUSH1 0x0 PUSH2 0x2A9D DUP3 PUSH2 0x264A JUMP JUMPDEST SWAP2 POP PUSH2 0x2AA8 DUP4 PUSH2 0x264A JUMP JUMPDEST SWAP3 POP DUP3 DUP3 SUB SWAP1 POP DUP2 DUP2 GT ISZERO PUSH2 0x2AC0 JUMPI PUSH2 0x2ABF PUSH2 0x299E JUMP JUMPDEST JUMPDEST SWAP3 SWAP2 POP POP JUMP JUMPDEST PUSH32 0x596F752063616E206E6F206C6F6E6765722072657475726E2074686973207072 PUSH1 0x0 DUP3 ADD MSTORE PUSH32 0x6F64756374000000000000000000000000000000000000000000000000000000 PUSH1 0x20 DUP3 ADD MSTORE POP JUMP JUMPDEST PUSH1 0x0 PUSH2 0x2B22 PUSH1 0x25 DUP4 PUSH2 0x2A15 JUMP JUMPDEST SWAP2 POP PUSH2 0x2B2D DUP3 PUSH2 0x2AC6 JUMP JUMPDEST PUSH1 0x40 DUP3 ADD SWAP1 POP SWAP2 SWAP1 POP JUMP JUMPDEST PUSH1 0x0 PUSH1 0x20 DUP3 ADD SWAP1 POP DUP2 DUP2 SUB PUSH1 0x0 DUP4 ADD MSTORE PUSH2 0x2B51 DUP2 PUSH2 0x2B15 JUMP JUMPDEST SWAP1 POP SWAP2 SWAP1 POP JUMP JUMPDEST PUSH32 0x4E487B7100000000000000000000000000000000000000000000000000000000 PUSH1 0x0 MSTORE PUSH1 0x31 PUSH1 0x4 MSTORE PUSH1 0x24 PUSH1 0x0 REVERT JUMPDEST PUSH1 0x0 PUSH2 0x2B92 DUP3 PUSH2 0x264A JUMP JUMPDEST SWAP2 POP PUSH2 0x2B9D DUP4 PUSH2 0x264A JUMP JUMPDEST SWAP3 POP DUP3 DUP3 ADD SWAP1 POP DUP1 DUP3 GT ISZERO PUSH2 0x2BB5 JUMPI PUSH2 0x2BB4 PUSH2 0x299E JUMP JUMPDEST JUMPDEST SWAP3 SWAP2 POP POP JUMP JUMPDEST PUSH1 0x0 DUP2 SWAP1 POP SWAP3 SWAP2 POP POP JUMP JUMPDEST POP JUMP JUMPDEST PUSH1 0x0 PUSH2 0x2BD6 PUSH1 0x0 DUP4 PUSH2 0x2BBB JUMP JUMPDEST SWAP2 POP PUSH2 0x2BE1 DUP3 PUSH2 0x2BC6 JUMP JUMPDEST PUSH1 0x0 DUP3 ADD SWAP1 POP SWAP2 SWAP1 POP JUMP JUMPDEST PUSH1 0x0 PUSH2 0x2BF7 DUP3 PUSH2 0x2BC9 JUMP JUMPDEST SWAP2 POP DUP2 SWAP1 POP SWAP2 SWAP1 POP JUMP JUMPDEST PUSH32 0x4661696C656420746F20726566756E6420776569000000000000000000000000 PUSH1 0x0 DUP3 ADD MSTORE POP JUMP JUMPDEST PUSH1 0x0 PUSH2 0x2C37 PUSH1 0x14 DUP4 PUSH2 0x2A15 JUMP JUMPDEST SWAP2 POP PUSH2 0x2C42 DUP3 PUSH2 0x2C01 JUMP JUMPDEST PUSH1 0x20 DUP3 ADD SWAP1 POP SWAP2 SWAP1 POP JUMP JUMPDEST PUSH1 0x0 PUSH1 0x20 DUP3 ADD SWAP1 POP DUP2 DUP2 SUB PUSH1 0x0 DUP4 ADD MSTORE PUSH2 0x2C66 DUP2 PUSH2 0x2C2A JUMP JUMPDEST SWAP1 POP SWAP2 SWAP1 POP JUMP JUMPDEST PUSH1 0x0 DUP2 SWAP1 POP SWAP2 SWAP1 POP JUMP JUMPDEST PUSH1 0x0 PUSH2 0x2C92 PUSH2 0x2C8D PUSH2 0x2C88 DUP5 PUSH2 0x26D7 JUMP JUMPDEST PUSH2 0x2C6D JUMP JUMPDEST PUSH2 0x26D7 JUMP JUMPDEST SWAP1 POP SWAP2 SWAP1 POP JUMP JUMPDEST PUSH1 0x0 PUSH2 0x2CA4 DUP3 PUSH2 0x2C77 JUMP JUMPDEST SWAP1 POP SWAP2 SWAP1 POP JUMP JUMPDEST PUSH1 0x0 PUSH2 0x2CB6 DUP3 PUSH2 0x2C99 JUMP JUMPDEST SWAP1 POP SWAP2 SWAP1 POP JUMP JUMPDEST PUSH2 0x2CC6 DUP2 PUSH2 0x2CAB JUMP JUMPDEST DUP3 MSTORE POP POP JUMP JUMPDEST PUSH1 0x0 PUSH1 0x40 DUP3 ADD SWAP1 POP PUSH2 0x2CE1 PUSH1 0x0 DUP4 ADD DUP6 PUSH2 0x26AD JUMP JUMPDEST PUSH2 0x2CEE PUSH1 0x20 DUP4 ADD DUP5 PUSH2 0x2CBD JUMP JUMPDEST SWAP4 SWAP3 POP POP POP JUMP JUMPDEST PUSH32 0x4E487B7100000000000000000000000000000000000000000000000000000000 PUSH1 0x0 MSTORE PUSH1 0x41 PUSH1 0x4 MSTORE PUSH1 0x24 PUSH1 0x0 REVERT JUMPDEST PUSH32 0x546869732070726F64756374206973206F7574206F662073746F636B00000000 PUSH1 0x0 DUP3 ADD MSTORE POP JUMP JUMPDEST PUSH1 0x0 PUSH2 0x2D5A PUSH1 0x1C DUP4 PUSH2 0x2A15 JUMP JUMPDEST SWAP2 POP PUSH2 0x2D65 DUP3 PUSH2 0x2D24 JUMP JUMPDEST PUSH1 0x20 DUP3 ADD SWAP1 POP SWAP2 SWAP1 POP JUMP JUMPDEST PUSH1 0x0 PUSH1 0x20 DUP3 ADD SWAP1 POP DUP2 DUP2 SUB PUSH1 0x0 DUP4 ADD MSTORE PUSH2 0x2D89 DUP2 PUSH2 0x2D4D JUMP JUMPDEST SWAP1 POP SWAP2 SWAP1 POP JUMP JUMPDEST PUSH32 0x546869732070726F6475637420646F6573206E6F742065786973740000000000 PUSH1 0x0 DUP3 ADD MSTORE POP JUMP JUMPDEST PUSH1 0x0 PUSH2 0x2DC6 PUSH1 0x1B DUP4 PUSH2 0x2A15 JUMP JUMPDEST SWAP2 POP PUSH2 0x2DD1 DUP3 PUSH2 0x2D90 JUMP JUMPDEST PUSH1 0x20 DUP3 ADD SWAP1 POP SWAP2 SWAP1 POP JUMP JUMPDEST PUSH1 0x0 PUSH1 0x20 DUP3 ADD SWAP1 POP DUP2 DUP2 SUB PUSH1 0x0 DUP4 ADD MSTORE PUSH2 0x2DF5 DUP2 PUSH2 0x2DB9 JUMP JUMPDEST SWAP1 POP SWAP2 SWAP1 POP JUMP JUMPDEST PUSH32 0x596F75206861766520616C726561647920707572636861736564207468697320 PUSH1 0x0 DUP3 ADD MSTORE PUSH32 0x70726F6475637400000000000000000000000000000000000000000000000000 PUSH1 0x20 DUP3 ADD MSTORE POP JUMP JUMPDEST PUSH1 0x0 PUSH2 0x2E58 PUSH1 0x27 DUP4 PUSH2 0x2A15 JUMP JUMPDEST SWAP2 POP PUSH2 0x2E63 DUP3 PUSH2 0x2DFC JUMP JUMPDEST PUSH1 0x40 DUP3 ADD SWAP1 POP SWAP2 SWAP1 POP JUMP JUMPDEST PUSH1 0x0 PUSH1 0x20 DUP3 ADD SWAP1 POP DUP2 DUP2 SUB PUSH1 0x0 DUP4 ADD MSTORE PUSH2 0x2E87 DUP2 PUSH2 0x2E4B JUMP JUMPDEST SWAP1 POP SWAP2 SWAP1 POP JUMP JUMPDEST PUSH32 0x596F75206E65656420746F2073656E6420312077656920746F20627579207468 PUSH1 0x0 DUP3 ADD MSTORE PUSH32 0x652070726F647563740000000000000000000000000000000000000000000000 PUSH1 0x20 DUP3 ADD MSTORE POP JUMP JUMPDEST PUSH1 0x0 PUSH2 0x2EEA PUSH1 0x29 DUP4 PUSH2 0x2A15 JUMP JUMPDEST SWAP2 POP PUSH2 0x2EF5 DUP3 PUSH2 0x2E8E JUMP JUMPDEST PUSH1 0x40 DUP3 ADD SWAP1 POP SWAP2 SWAP1 POP JUMP JUMPDEST PUSH1 0x0 PUSH1 0x20 DUP3 ADD SWAP1 POP DUP2 DUP2 SUB PUSH1 0x0 DUP4 ADD MSTORE PUSH2 0x2F19 DUP2 PUSH2 0x2EDD JUMP JUMPDEST SWAP1 POP SWAP2 SWAP1 POP JUMP JUMPDEST PUSH32 0x4F6E6C792061646D696E20686173207468697320726967687473000000000000 PUSH1 0x0 DUP3 ADD MSTORE POP JUMP JUMPDEST PUSH1 0x0 PUSH2 0x2F56 PUSH1 0x1A DUP4 PUSH2 0x2A15 JUMP JUMPDEST SWAP2 POP PUSH2 0x2F61 DUP3 PUSH2 0x2F20 JUMP JUMPDEST PUSH1 0x20 DUP3 ADD SWAP1 POP SWAP2 SWAP1 POP JUMP JUMPDEST PUSH1 0x0 PUSH1 0x20 DUP3 ADD SWAP1 POP DUP2 DUP2 SUB PUSH1 0x0 DUP4 ADD MSTORE PUSH2 0x2F85 DUP2 PUSH2 0x2F49 JUMP JUMPDEST SWAP1 POP SWAP2 SWAP1 POP JUMP JUMPDEST PUSH1 0x0 PUSH1 0x40 DUP3 ADD SWAP1 POP PUSH2 0x2FA1 PUSH1 0x0 DUP4 ADD DUP6 PUSH2 0x26AD JUMP JUMPDEST PUSH2 0x2FAE PUSH1 0x20 DUP4 ADD DUP5 PUSH2 0x26AD JUMP JUMPDEST SWAP4 SWAP3 POP POP POP JUMP JUMPDEST PUSH1 0x0 DUP2 MLOAD SWAP1 POP SWAP2 SWAP1 POP JUMP JUMPDEST PUSH1 0x0 JUMPDEST DUP4 DUP2 LT ISZERO PUSH2 0x2FDE JUMPI DUP1 DUP3 ADD MLOAD DUP2 DUP5 ADD MSTORE PUSH1 0x20 DUP2 ADD SWAP1 POP PUSH2 0x2FC3 JUMP JUMPDEST PUSH1 0x0 DUP5 DUP5 ADD MSTORE POP POP POP POP JUMP JUMPDEST PUSH1 0x0 PUSH1 0x1F NOT PUSH1 0x1F DUP4 ADD AND SWAP1 POP SWAP2 SWAP1 POP JUMP JUMPDEST PUSH1 0x0 PUSH2 0x3006 DUP3 PUSH2 0x2FB5 JUMP JUMPDEST PUSH2 0x3010 DUP2 DUP6 PUSH2 0x2A15 JUMP JUMPDEST SWAP4 POP PUSH2 0x3020 DUP2 DUP6 PUSH1 0x20 DUP7 ADD PUSH2 0x2FC0 JUMP JUMPDEST PUSH2 0x3029 DUP2 PUSH2 0x2FEA JUMP JUMPDEST DUP5 ADD SWAP2 POP POP SWAP3 SWAP2 POP POP JUMP JUMPDEST PUSH1 0x0 PUSH1 0x60 DUP3 ADD SWAP1 POP DUP2 DUP2 SUB PUSH1 0x0 DUP4 ADD MSTORE PUSH2 0x304E DUP2 DUP7 PUSH2 0x2FFB JUMP JUMPDEST SWAP1 POP PUSH2 0x305D PUSH1 0x20 DUP4 ADD DUP6 PUSH2 0x26AD JUMP JUMPDEST DUP2 DUP2 SUB PUSH1 0x40 DUP4 ADD MSTORE PUSH2 0x306F DUP2 DUP5 PUSH2 0x2FFB JUMP JUMPDEST SWAP1 POP SWAP5 SWAP4 POP POP POP POP JUMP JUMPDEST PUSH1 0x0 PUSH1 0x80 DUP3 ADD SWAP1 POP DUP2 DUP2 SUB PUSH1 0x0 DUP4 ADD MSTORE PUSH2 0x3093 DUP2 DUP8 PUSH2 0x2FFB JUMP JUMPDEST SWAP1 POP PUSH2 0x30A2 PUSH1 0x20 DUP4 ADD DUP7 PUSH2 0x26AD JUMP JUMPDEST DUP2 DUP2 SUB PUSH1 0x40 DUP4 ADD MSTORE PUSH2 0x30B4 DUP2 DUP6 PUSH2 0x2FFB JUMP JUMPDEST SWAP1 POP PUSH2 0x30C3 PUSH1 0x60 DUP4 ADD DUP5 PUSH2 0x26AD JUMP JUMPDEST SWAP6 SWAP5 POP POP POP POP POP JUMP INVALID LOG2 PUSH5 0x6970667358 0x22 SLT KECCAK256 LOG0 LOG3 SIGNEXTEND 0xE3 0xC0 DUP1 CALL NOT 0xC4 0xE3 0xF8 SAR PUSH14 0xCA5541DD5926DE70CA14CC09199B CALLVALUE PUSH4 0x6998864 PUSH20 0x6F6C634300081200330000000000000000000000 "},"methodIdentifiers":{"admin()":"f851a440","buyProduct(uint256)":"8642269e","buyer()":"7150d8ae","createOrUpdateProduct(uint256,uint256)":"b04eca76","getAddressOfProductBuyers(uint256)":"b110410d","getContractBalance()":"6f9fb98a","getProductsIds()":"7ebc0a82","getProductsQuantities()":"df23a026","returnProduct(uint256)":"131e407d"}}}}}