{
  "_format": "hh-sol-artifact-1",
  "contractName": "TechnoLimeStore",
  "sourceName": "contracts/TechnoLimeStore.sol",
  "abi": [
    {
      "inputs": [],
      "stateMutability": "nonpayable",
      "type": "constructor"
    },
    {
      "anonymous": false,
      "inputs": [
        {
          "indexed": false,
          "internalType": "uint256",
          "name": "id",
          "type": "uint256"
        },
        {
          "indexed": false,
          "internalType": "uint256",
          "name": "quantity",
          "type": "uint256"
        }
      ],
      "name": "ProductCreated",
      "type": "event"
    },
    {
      "anonymous": false,
      "inputs": [
        {
          "indexed": false,
          "internalType": "uint256",
          "name": "id",
          "type": "uint256"
        },
        {
          "indexed": false,
          "internalType": "address",
          "name": "buyer",
          "type": "address"
        }
      ],
      "name": "ProductPurchased",
      "type": "event"
    },
    {
      "anonymous": false,
      "inputs": [
        {
          "indexed": false,
          "internalType": "uint256",
          "name": "id",
          "type": "uint256"
        },
        {
          "indexed": false,
          "internalType": "address",
          "name": "buyer",
          "type": "address"
        }
      ],
      "name": "ProductReturned",
      "type": "event"
    },
    {
      "anonymous": false,
      "inputs": [
        {
          "indexed": false,
          "internalType": "uint256",
          "name": "id",
          "type": "uint256"
        },
        {
          "indexed": false,
          "internalType": "uint256",
          "name": "quantity",
          "type": "uint256"
        }
      ],
      "name": "ProductUpdated",
      "type": "event"
    },
    {
      "inputs": [],
      "name": "admin",
      "outputs": [
        {
          "internalType": "address",
          "name": "",
          "type": "address"
        }
      ],
      "stateMutability": "view",
      "type": "function"
    },
    {
      "inputs": [
        {
          "internalType": "uint256",
          "name": "_id",
          "type": "uint256"
        }
      ],
      "name": "buyProduct",
      "outputs": [],
      "stateMutability": "payable",
      "type": "function"
    },
    {
      "inputs": [],
      "name": "buyer",
      "outputs": [
        {
          "internalType": "address payable",
          "name": "",
          "type": "address"
        }
      ],
      "stateMutability": "view",
      "type": "function"
    },
    {
      "inputs": [
        {
          "internalType": "uint256",
          "name": "_id",
          "type": "uint256"
        },
        {
          "internalType": "uint256",
          "name": "_quantity",
          "type": "uint256"
        }
      ],
      "name": "createOrUpdateProduct",
      "outputs": [],
      "stateMutability": "nonpayable",
      "type": "function"
    },
    {
      "inputs": [
        {
          "internalType": "uint256",
          "name": "_id",
          "type": "uint256"
        }
      ],
      "name": "getAddressOfProductBuyers",
      "outputs": [
        {
          "internalType": "address[]",
          "name": "",
          "type": "address[]"
        }
      ],
      "stateMutability": "view",
      "type": "function"
    },
    {
      "inputs": [],
      "name": "getContractBalance",
      "outputs": [
        {
          "internalType": "uint256",
          "name": "",
          "type": "uint256"
        }
      ],
      "stateMutability": "view",
      "type": "function"
    },
    {
      "inputs": [],
      "name": "getProductsIds",
      "outputs": [
        {
          "internalType": "uint256[]",
          "name": "",
          "type": "uint256[]"
        }
      ],
      "stateMutability": "view",
      "type": "function"
    },
    {
      "inputs": [],
      "name": "getProductsQuantities",
      "outputs": [
        {
          "internalType": "uint256[]",
          "name": "",
          "type": "uint256[]"
        }
      ],
      "stateMutability": "view",
      "type": "function"
    },
    {
      "inputs": [
        {
          "internalType": "uint256",
          "name": "_id",
          "type": "uint256"
        }
      ],
      "name": "returnProduct",
      "outputs": [],
      "stateMutability": "nonpayable",
      "type": "function"
    }
  ],
  "bytecode": "0x60a06040526001600060166101000a81548160ff0219169083151502179055503480156200002c57600080fd5b5062000049678fc3653bc748e5c960c01b6200014060201b60201c565b6200006567838bce073f0c0c9e60c01b6200014060201b60201c565b3373ffffffffffffffffffffffffffffffffffffffff1660808173ffffffffffffffffffffffffffffffffffffffff1681525050620000b567f7929afdbb6f5b4960c01b6200014060201b60201c565b620000d1679c25a78aa465931f60c01b6200014060201b60201c565b60066040518060600160405280600181526020016001815260200160018152509080600181540180825580915050600190039060005260206000209060030201600090919091909150600082015181600001556020820151816001015560408201518160020155505062000143565b50565b6080516131026200016660003960008181611ad401526124b601526131026000f3fe6080604052600436106100865760003560e01c80638642269e116100595780638642269e14610135578063b04eca7614610151578063b110410d1461017a578063df23a026146101b7578063f851a440146101e257610086565b8063131e407d1461008b5780636f9fb98a146100b45780637150d8ae146100df5780637ebc0a821461010a575b600080fd5b34801561009757600080fd5b506100b260048036038101906100ad9190612680565b61020d565b005b3480156100c057600080fd5b506100c9610d57565b6040516100d691906126bc565b60405180910390f35b3480156100eb57600080fd5b506100f4610d9b565b6040516101019190612718565b60405180910390f35b34801561011657600080fd5b5061011f610dbf565b60405161012c91906127f1565b60405180910390f35b61014f600480360381019061014a9190612680565b610f79565b005b34801561015d57600080fd5b5061017860048036038101906101739190612813565b611a6e565b005b34801561018657600080fd5b506101a1600480360381019061019c9190612680565b6120eb565b6040516101ae9190612923565b60405180910390f35b3480156101c357600080fd5b506101cc6122f9565b6040516101d991906127f1565b60405180910390f35b3480156101ee57600080fd5b506101f76124b4565b6040516102049190612954565b60405180910390f35b61022167ec526628a8430aae60c01b6124d8565b61023567a71b114d54baccd260c01b6124d8565b6102496780d3a7267ba4a19560c01b6124d8565b336000806101000a81548173ffffffffffffffffffffffffffffffffffffffff021916908373ffffffffffffffffffffffffffffffffffffffff16021790555061029d67d835bac6c510895b60c01b6124d8565b6102b167688e4eee57f2fa5c60c01b6124d8565b6102c5673fd3ed91495f0edc60c01b6124d8565b806102da67e98c13e01dffc61160c01b6124d8565b6102ee67a2d538f9c37ea36460c01b6124d8565b6001600060166101000a81548160ff02191690831515021790555061031d676d611c191f86fd2760c01b6124d8565b61033167637c22662bc7331e60c01b6124d8565b60005b600760008060009054906101000a900473ffffffffffffffffffffffffffffffffffffffff1673ffffffffffffffffffffffffffffffffffffffff1673ffffffffffffffffffffffffffffffffffffffff168152602001908152602001600020805490508110156104d4576103b3670b1a137af7982c2c60c01b6124d8565b6103c767b5e32379fb252d7560c01b6124d8565b81600760008060009054906101000a900473ffffffffffffffffffffffffffffffffffffffff1673ffffffffffffffffffffffffffffffffffffffff1673ffffffffffffffffffffffffffffffffffffffff168152602001908152602001600020828154811061043a5761043961296f565b5b9060005260206000200154036104ac5761045e67e337af49dd61432d60c01b6124d8565b61047267d5b7aefcdf882b9f60c01b6124d8565b60008060166101000a81548160ff0219169083151502179055506104a067c14dadd2bc0f064960c01b6124d8565b806002819055506104c1565b6104c067a1de23c31546a49b60c01b6124d8565b5b80806104cc906129cd565b915050610334565b506104e9672bd95160b81325ed60c01b6124d8565b6104fd6763c40bf9aade96b360c01b6124d8565b610511670b067a5c0ede1ee860c01b6124d8565b81610526671b63d913fe4bef2060c01b6124d8565b61053a673206e4713cdaea3d60c01b6124d8565b60008060146101000a81548160ff02191690831515021790555061056867db5101f1cb1b6a4360c01b6124d8565b61057c67e517f19857aaf4ec60c01b6124d8565b60005b60068054905081101561067e576105a0678175027f9e5d788560c01b6124d8565b6105b467e7bb409859720f9d60c01b6124d8565b81600682815481106105c9576105c861296f565b5b90600052602060002090600302016000015403610657576105f467b8d932b944dae3e560c01b6124d8565b610608675e245b165053ec0f60c01b6124d8565b8060018190555061062367667b42c414c4057860c01b6124d8565b6001600060146101000a81548160ff02191690831515021790555061065267375adee4e6e30e0360c01b6124d8565b61067e565b61066b67d5d125137d0c60f560c01b6124d8565b8080610676906129cd565b91505061057f565b5061069367089796e9c26151e460c01b6124d8565b6106a7671f3eff2057bfa35a60c01b6124d8565b6106bb6765c21a98a9acc24960c01b6124d8565b6106cf6770194d26ef00dce160c01b6124d8565b6106e36785afb7c7cd5b764d60c01b6124d8565b6106f767f607f2948c06011c60c01b6124d8565b600060169054906101000a900460ff1615610747576040517f08c379a000000000000000000000000000000000000000000000000000000000815260040161073e90612a72565b60405180910390fd5b61075b67d8dcc5e35adc2f0b60c01b6124d8565b61076f678f99fb063be527e960c01b6124d8565b61078367e5ba9aa9ac4302f060c01b6124d8565b600042905061079c670423acf0e82b4f6760c01b6124d8565b6107b0670a7424eb27baf28c60c01b6124d8565b60006009600086815260200190815260200160002054826107d19190612a92565b90506107e7678f1f5c4e5efb191960c01b6124d8565b6107fb67f11f96c8cfac225060c01b6124d8565b61080f67b93938b93756d4d160c01b6124d8565b60648110610852576040517f08c379a000000000000000000000000000000000000000000000000000000000815260040161084990612b38565b60405180910390fd5b6108666797549ed0e25ed2f160c01b6124d8565b61087a6736b214e763e57a9e60c01b6124d8565b600760008060009054906101000a900473ffffffffffffffffffffffffffffffffffffffff1673ffffffffffffffffffffffffffffffffffffffff1673ffffffffffffffffffffffffffffffffffffffff1681526020019081526020016000206001600760008060009054906101000a900473ffffffffffffffffffffffffffffffffffffffff1673ffffffffffffffffffffffffffffffffffffffff1673ffffffffffffffffffffffffffffffffffffffff1681526020019081526020016000208054905061094a9190612a92565b8154811061095b5761095a61296f565b5b9060005260206000200154600760008060009054906101000a900473ffffffffffffffffffffffffffffffffffffffff1673ffffffffffffffffffffffffffffffffffffffff1673ffffffffffffffffffffffffffffffffffffffff168152602001908152602001600020600254815481106109da576109d961296f565b5b90600052602060002001819055506109fc672303af5540348a2f60c01b6124d8565b610a1067fac92f923f81906b60c01b6124d8565b600760008060009054906101000a900473ffffffffffffffffffffffffffffffffffffffff1673ffffffffffffffffffffffffffffffffffffffff1673ffffffffffffffffffffffffffffffffffffffff168152602001908152602001600020805480610a8057610a7f612b58565b5b60019003818190600052602060002001600090559055610aaa6728e9d2d2d04b8e1f60c01b6124d8565b6001600660015481548110610ac257610ac161296f565b5b90600052602060002090600302016001016000828254610ae29190612b87565b92505081905550610afd67782191a23d2f468c60c01b6124d8565b610b1167f42f4fe18ea46cd860c01b6124d8565b60008060008054906101000a900473ffffffffffffffffffffffffffffffffffffffff1673ffffffffffffffffffffffffffffffffffffffff166001604051610b5990612bec565b60006040518083038185875af1925050503d8060008114610b96576040519150601f19603f3d011682016040523d82523d6000602084013e610b9b565b606091505b5091509150610bb467f56a36c3d235117760c01b6124d8565b610bc867cc1e22b10002ab6a60c01b6124d8565b610bdc67ef6a51b469f6e50360c01b6124d8565b81610c1c576040517f08c379a0000000000000000000000000000000000000000000000000000000008152600401610c1390612c4d565b60405180910390fd5b610c30678dcdc686c7c3d92660c01b6124d8565b610c44679d051e4ac2da5cbc60c01b6124d8565b610c5867856009ea3e1f3ab360c01b6124d8565b610ccd6040518060400160405280600781526020017f50726f6475637400000000000000000000000000000000000000000000000000815250886040518060400160405280600881526020017f72657475726e65640000000000000000000000000000000000000000000000008152506124db565b610ce167362b6a810995446260c01b6124d8565b610cf567d185639bfeda249960c01b6124d8565b7f478dc6d37edc125e74f01c53ecdf42cf8575815cdf2c5f31a566852d22a0c4db8760008054906101000a900473ffffffffffffffffffffffffffffffffffffffff16604051610d46929190612ccc565b60405180910390a150505050505050565b6000610d6d673762a3cfc215eae160c01b6124d8565b610d8167c994f3464b7ad3d560c01b6124d8565b610d95676b413b90aea2f46360c01b6124d8565b47905090565b60008054906101000a900473ffffffffffffffffffffffffffffffffffffffff1681565b6060610dd5672be201bc3f2300b160c01b6124d8565b610de967e03f2f8f7e52f61e60c01b6124d8565b610dfd677a0cc54350bfcad360c01b6124d8565b600060068054905067ffffffffffffffff811115610e1e57610e1d612cf5565b5b604051908082528060200260200182016040528015610e4c5781602001602082028036833780820191505090505b509050610e6367e6ef37663804ddf260c01b6124d8565b610e77677ef55856a1684cae60c01b6124d8565b60005b600680549050811015610f4a57610e9b67e3666a5439230b6960c01b6124d8565b610eaf67e630f68a1be68a0560c01b6124d8565b600060068281548110610ec557610ec461296f565b5b906000526020600020906003020160405180606001604052908160008201548152602001600182015481526020016002820154815250509050610f1267dd654d7abbad7a8c60c01b6124d8565b8060000151838381518110610f2a57610f2961296f565b5b602002602001018181525050508080610f42906129cd565b915050610e7a565b50610f5e66788f924cdc84fa60c01b6124d8565b610f7267e31a41e11f81fdd860c01b6124d8565b8091505090565b610f8d67d35b2b06d2781a4660c01b6124d8565b610fa167a71b114d54baccd260c01b6124d8565b610fb56780d3a7267ba4a19560c01b6124d8565b336000806101000a81548173ffffffffffffffffffffffffffffffffffffffff021916908373ffffffffffffffffffffffffffffffffffffffff16021790555061100967d835bac6c510895b60c01b6124d8565b61101d67ff64fe53dda82ca160c01b6124d8565b6110316738cbe8a591bbe54660c01b6124d8565b80611046671b63d913fe4bef2060c01b6124d8565b61105a673206e4713cdaea3d60c01b6124d8565b60008060146101000a81548160ff02191690831515021790555061108867db5101f1cb1b6a4360c01b6124d8565b61109c67e517f19857aaf4ec60c01b6124d8565b60005b60068054905081101561119e576110c0678175027f9e5d788560c01b6124d8565b6110d467e7bb409859720f9d60c01b6124d8565b81600682815481106110e9576110e861296f565b5b906000526020600020906003020160000154036111775761111467b8d932b944dae3e560c01b6124d8565b611128675e245b165053ec0f60c01b6124d8565b8060018190555061114367667b42c414c4057860c01b6124d8565b6001600060146101000a81548160ff02191690831515021790555061117267375adee4e6e30e0360c01b6124d8565b61119e565b61118b67d5d125137d0c60f560c01b6124d8565b8080611196906129cd565b91505061109f565b506111b367089796e9c26151e460c01b6124d8565b6111c767d7beb570e0c2fda960c01b6124d8565b6111db6740ef4d0742bdb7a860c01b6124d8565b816111f067e98c13e01dffc61160c01b6124d8565b61120467a2d538f9c37ea36460c01b6124d8565b6001600060166101000a81548160ff021916908315150217905550611233676d611c191f86fd2760c01b6124d8565b61124767637c22662bc7331e60c01b6124d8565b60005b600760008060009054906101000a900473ffffffffffffffffffffffffffffffffffffffff1673ffffffffffffffffffffffffffffffffffffffff1673ffffffffffffffffffffffffffffffffffffffff168152602001908152602001600020805490508110156113ea576112c9670b1a137af7982c2c60c01b6124d8565b6112dd67b5e32379fb252d7560c01b6124d8565b81600760008060009054906101000a900473ffffffffffffffffffffffffffffffffffffffff1673ffffffffffffffffffffffffffffffffffffffff1673ffffffffffffffffffffffffffffffffffffffff16815260200190815260200160002082815481106113505761134f61296f565b5b9060005260206000200154036113c25761137467e337af49dd61432d60c01b6124d8565b61138867d5b7aefcdf882b9f60c01b6124d8565b60008060166101000a81548160ff0219169083151502179055506113b667c14dadd2bc0f064960c01b6124d8565b806002819055506113d7565b6113d667a1de23c31546a49b60c01b6124d8565b5b80806113e2906129cd565b91505061124a565b506113ff672bd95160b81325ed60c01b6124d8565b61141367a4e338cd584a67cc60c01b6124d8565b61142767574dd814e55cb04960c01b6124d8565b8261143c67f79c4a40cfd6b39a60c01b6124d8565b611450676c94cf3c3799cf5f60c01b6124d8565b61146467a6d3b062bcc07fc660c01b6124d8565b600060066001548154811061147c5761147b61296f565b5b90600052602060002090600302016001015411156114dc576114a8674c1c237f75add5b460c01b6124d8565b6114bc670bf515d5d5adee3260c01b6124d8565b6001600060156101000a81548160ff021916908315150217905550611553565b6114f067e9fd774c0406756760c01b6124d8565b61150467e25d1316a393247e60c01b6124d8565b611518671edbed2253d084f960c01b6124d8565b6040517f08c379a000000000000000000000000000000000000000000000000000000000815260040161154a90612d70565b60405180910390fd5b611567679cf473cf9350d87c60c01b6124d8565b61157b670d9c5feb814433a660c01b6124d8565b61158f673c120ab675f832e160c01b6124d8565b6115a367e7dbb8f4dc5851f960c01b6124d8565b6115b7678224b191b12564c760c01b6124d8565b6115cb6792444c3a40cefc7960c01b6124d8565b600060149054906101000a900460ff1661161a576040517f08c379a000000000000000000000000000000000000000000000000000000000815260040161161190612ddc565b60405180910390fd5b61162e674bbdd11026c104a660c01b6124d8565b61164267463ecb89ec9e07a260c01b6124d8565b61165667da12d15233d42fd160c01b6124d8565b61166a6735c54738d8e226f760c01b6124d8565b600060169054906101000a900460ff166116b9576040517f08c379a00000000000000000000000000000000000000000000000000000000081526004016116b090612e6e565b60405180910390fd5b6116cd67b82ebaaaeec99af460c01b6124d8565b6116e167d8161fc9fc9f339960c01b6124d8565b6116f5678618a69bce71e32360c01b6124d8565b61170967abfe9563dbd5f20c60c01b6124d8565b6001341461174c576040517f08c379a000000000000000000000000000000000000000000000000000000000815260040161174390612f00565b60405180910390fd5b611760679f76eae03150903860c01b6124d8565b61177467fb41cf792d01514460c01b6124d8565b611788677d3ab12a3531901a60c01b6124d8565b6008600085815260200190815260200160002060008054906101000a900473ffffffffffffffffffffffffffffffffffffffff169080600181540180825580915050600190039060005260206000200160009091909190916101000a81548173ffffffffffffffffffffffffffffffffffffffff021916908373ffffffffffffffffffffffffffffffffffffffff1602179055506118306748a648b32e8e155d60c01b6124d8565b611844675a5e4a2a1c3b8c6c60c01b6124d8565b600760008060009054906101000a900473ffffffffffffffffffffffffffffffffffffffff1673ffffffffffffffffffffffffffffffffffffffff1673ffffffffffffffffffffffffffffffffffffffff1681526020019081526020016000208490806001815401808255809150506001900390600052602060002001600090919091909150556118df676341f9f5652be39060c01b6124d8565b60016006600154815481106118f7576118f661296f565b5b906000526020600020906003020160010160008282546119179190612a92565b92505081905550611932675cf89c64eccc064a60c01b6124d8565b42600960008681526020019081526020016000208190555061195e6770795140956f7b4e60c01b6124d8565b611972670bc87be8c27b125260c01b6124d8565b6119e76040518060400160405280600781526020017f50726f6475637400000000000000000000000000000000000000000000000000815250856040518060400160405280600981526020017f70757263686173656400000000000000000000000000000000000000000000008152506124db565b6119fb67ce0712741c4f9d5c60c01b6124d8565b611a0f672362569532c5d42e60c01b6124d8565b7f9ad4ecfaf27ea0cbeebee0ed92fe15c8a84975f1e3d45ccfc526d7751dcf98ff8460008054906101000a900473ffffffffffffffffffffffffffffffffffffffff16604051611a60929190612ccc565b60405180910390a150505050565b611a826798901709689fe13c60c01b6124d8565b611a9667310ae7ee12f7a62c60c01b6124d8565b611aaa671e458ef64c3585e060c01b6124d8565b611abe67aa62c17942fc6bff60c01b6124d8565b611ad267e41bebc54291897060c01b6124d8565b7f000000000000000000000000000000000000000000000000000000000000000073ffffffffffffffffffffffffffffffffffffffff163373ffffffffffffffffffffffffffffffffffffffff1614611b60576040517f08c379a0000000000000000000000000000000000000000000000000000000008152600401611b5790612f6c565b60405180910390fd5b611b746735b2a19a52964c6460c01b6124d8565b611b8867a9fc9d3b39a4770f60c01b6124d8565b611b9c67640a37a4c0c0ba1d60c01b6124d8565b611bb067dce8dbc67cb2de9d60c01b6124d8565b81611bc5671b63d913fe4bef2060c01b6124d8565b611bd9673206e4713cdaea3d60c01b6124d8565b60008060146101000a81548160ff021916908315150217905550611c0767db5101f1cb1b6a4360c01b6124d8565b611c1b67e517f19857aaf4ec60c01b6124d8565b60005b600680549050811015611d1d57611c3f678175027f9e5d788560c01b6124d8565b611c5367e7bb409859720f9d60c01b6124d8565b8160068281548110611c6857611c6761296f565b5b90600052602060002090600302016000015403611cf657611c9367b8d932b944dae3e560c01b6124d8565b611ca7675e245b165053ec0f60c01b6124d8565b80600181905550611cc267667b42c414c4057860c01b6124d8565b6001600060146101000a81548160ff021916908315150217905550611cf167375adee4e6e30e0360c01b6124d8565b611d1d565b611d0a67d5d125137d0c60f560c01b6124d8565b8080611d15906129cd565b915050611c1e565b50611d3267089796e9c26151e460c01b6124d8565b611d4667fb5be0bc97a9263b60c01b6124d8565b611d5a675a16f895aa84a47f60c01b6124d8565b611d6e679f250c9f0c17866560c01b6124d8565b611d82670a51eda28d665cbc60c01b6124d8565b60011515600060149054906101000a900460ff16151503611f4357611db167f17455a678c64cfb60c01b6124d8565b611dc56793b8e4760f1e300560c01b6124d8565b81600660015481548110611ddc57611ddb61296f565b5b906000526020600020906003020160010181905550611e0567d88861685fc97cf960c01b6124d8565b611e1967a3e991fb8b8f51cc60c01b6124d8565b611edd6040518060400160405280600881526020017f5570646174696e67000000000000000000000000000000000000000000000000815250600660015481548110611e6857611e6761296f565b5b9060005260206000209060030201600001546040518060400160405280600581526020017f746f206265000000000000000000000000000000000000000000000000000000815250600660015481548110611ec657611ec561296f565b5b90600052602060002090600302016001015461257a565b611ef167f621d0d6884a603f60c01b6124d8565b611f056752ef1d8bdf41b50260c01b6124d8565b7f1a58b4c176a67828ebe2456bc637af85e69b115be11597e049b0669d13bea9998383604051611f36929190612f8c565b60405180910390a16120e6565b611f576705cb045afc6fbb8f60c01b6124d8565b611f6b67f76e16b51fe8293860c01b6124d8565b611f7f67280b9ee9a0c42c8f60c01b6124d8565b60066040518060600160405280858152602001848152602001600181525090806001815401808255809150506001900390600052602060002090600302016000909190919091506000820151816000015560208201518160010155604082015181600201555050611ffa67e67074b03a941f2660c01b6124d8565b61200e672642fe52facd8ded60c01b6124d8565b7f2a60815e9d2622a909b3c2b731fa879a529c93b5fecdb1cfea183695707572cc838360405161203f929190612f8c565b60405180910390a161205b67e68b48230911766560c01b6124d8565b61206f67b3b40eff0d57b24760c01b6124d8565b6120e56040518060400160405280601081526020017f6372656174696e672070726f6475637400000000000000000000000000000000815250846040518060400160405280601981526020017f77697468207072696365203120616e64207175616e74697479000000000000008152508561257a565b5b505050565b6060612101676969f12e362e3b6060c01b6124d8565b6121156791963c584608757460c01b6124d8565b61212967d76a140a3ec48aa960c01b6124d8565b6000600860008481526020019081526020016000208054905067ffffffffffffffff81111561215b5761215a612cf5565b5b6040519080825280602002602001820160405280156121895781602001602082028036833780820191505090505b5090506121a067074054ac3baba19260c01b6124d8565b6121b46713d42b0a39425a3f60c01b6124d8565b60005b60086000858152602001908152602001600020805490508110156122c7576121e967a80e1f241b51715560c01b6124d8565b6121fd67f309334221be3a3c60c01b6124d8565b60006008600086815260200190815260200160002082815481106122245761222361296f565b5b9060005260206000200160009054906101000a900473ffffffffffffffffffffffffffffffffffffffff16905061226567848ce37c299eeaf360c01b6124d8565b808383815181106122795761227861296f565b5b602002602001019073ffffffffffffffffffffffffffffffffffffffff16908173ffffffffffffffffffffffffffffffffffffffff16815250505080806122bf906129cd565b9150506121b7565b506122dc676458689bd922d94660c01b6124d8565b6122f06732882adab86d3cf860c01b6124d8565b80915050919050565b606061230f6796455eaa468dd6f660c01b6124d8565b61232367ccce32b9cb8532c660c01b6124d8565b61233767e8fc8314ecbca65860c01b6124d8565b600060068054905067ffffffffffffffff81111561235857612357612cf5565b5b6040519080825280602002602001820160405280156123865781602001602082028036833780820191505090505b50905061239d6709b74b9d4a1e473560c01b6124d8565b6123b167d86849ce2bca45e360c01b6124d8565b60005b600680549050811015612484576123d56793421ab28772380560c01b6124d8565b6123e9677f9ff4409dce963b60c01b6124d8565b6000600682815481106123ff576123fe61296f565b5b90600052602060002090600302016040518060600160405290816000820154815260200160018201548152602001600282015481525050905061244c678a1c6fe954d0f05560c01b6124d8565b80602001518383815181106124645761246361296f565b5b60200260200101818152505050808061247c906129cd565b9150506123b4565b5061249967da6879edb4e41dbd60c01b6124d8565b6124ad67d56ac43b55f3824f60c01b6124d8565b8091505090565b7f000000000000000000000000000000000000000000000000000000000000000081565b50565b6125758383836040516024016124f393929190613034565b6040516020818303038152906040527f5970e089000000000000000000000000000000000000000000000000000000007bffffffffffffffffffffffffffffffffffffffffffffffffffffffff19166020820180517bffffffffffffffffffffffffffffffffffffffffffffffffffffffff838183161783525050505061261c565b505050565b612616848484846040516024016125949493929190613079565b6040516020818303038152906040527fc67ea9d1000000000000000000000000000000000000000000000000000000007bffffffffffffffffffffffffffffffffffffffffffffffffffffffff19166020820180517bffffffffffffffffffffffffffffffffffffffffffffffffffffffff838183161783525050505061261c565b50505050565b60008151905060006a636f6e736f6c652e6c6f679050602083016000808483855afa5050505050565b600080fd5b6000819050919050565b61265d8161264a565b811461266857600080fd5b50565b60008135905061267a81612654565b92915050565b60006020828403121561269657612695612645565b5b60006126a48482850161266b565b91505092915050565b6126b68161264a565b82525050565b60006020820190506126d160008301846126ad565b92915050565b600073ffffffffffffffffffffffffffffffffffffffff82169050919050565b6000612702826126d7565b9050919050565b612712816126f7565b82525050565b600060208201905061272d6000830184612709565b92915050565b600081519050919050565b600082825260208201905092915050565b6000819050602082019050919050565b6127688161264a565b82525050565b600061277a838361275f565b60208301905092915050565b6000602082019050919050565b600061279e82612733565b6127a8818561273e565b93506127b38361274f565b8060005b838110156127e45781516127cb888261276e565b97506127d683612786565b9250506001810190506127b7565b5085935050505092915050565b6000602082019050818103600083015261280b8184612793565b905092915050565b6000806040838503121561282a57612829612645565b5b60006128388582860161266b565b92505060206128498582860161266b565b9150509250929050565b600081519050919050565b600082825260208201905092915050565b6000819050602082019050919050565b600061288a826126d7565b9050919050565b61289a8161287f565b82525050565b60006128ac8383612891565b60208301905092915050565b6000602082019050919050565b60006128d082612853565b6128da818561285e565b93506128e58361286f565b8060005b838110156129165781516128fd88826128a0565b9750612908836128b8565b9250506001810190506128e9565b5085935050505092915050565b6000602082019050818103600083015261293d81846128c5565b905092915050565b61294e8161287f565b82525050565b60006020820190506129696000830184612945565b92915050565b7f4e487b7100000000000000000000000000000000000000000000000000000000600052603260045260246000fd5b7f4e487b7100000000000000000000000000000000000000000000000000000000600052601160045260246000fd5b60006129d88261264a565b91507fffffffffffffffffffffffffffffffffffffffffffffffffffffffffffffffff8203612a0a57612a0961299e565b5b600182019050919050565b600082825260208201905092915050565b7f596f7520646964206e6f742062757920746869732070726f6475637400000000600082015250565b6000612a5c601c83612a15565b9150612a6782612a26565b602082019050919050565b60006020820190508181036000830152612a8b81612a4f565b9050919050565b6000612a9d8261264a565b9150612aa88361264a565b9250828203905081811115612ac057612abf61299e565b5b92915050565b7f596f752063616e206e6f206c6f6e6765722072657475726e207468697320707260008201527f6f64756374000000000000000000000000000000000000000000000000000000602082015250565b6000612b22602583612a15565b9150612b2d82612ac6565b604082019050919050565b60006020820190508181036000830152612b5181612b15565b9050919050565b7f4e487b7100000000000000000000000000000000000000000000000000000000600052603160045260246000fd5b6000612b928261264a565b9150612b9d8361264a565b9250828201905080821115612bb557612bb461299e565b5b92915050565b600081905092915050565b50565b6000612bd6600083612bbb565b9150612be182612bc6565b600082019050919050565b6000612bf782612bc9565b9150819050919050565b7f4661696c656420746f20726566756e6420776569000000000000000000000000600082015250565b6000612c37601483612a15565b9150612c4282612c01565b602082019050919050565b60006020820190508181036000830152612c6681612c2a565b9050919050565b6000819050919050565b6000612c92612c8d612c88846126d7565b612c6d565b6126d7565b9050919050565b6000612ca482612c77565b9050919050565b6000612cb682612c99565b9050919050565b612cc681612cab565b82525050565b6000604082019050612ce160008301856126ad565b612cee6020830184612cbd565b9392505050565b7f4e487b7100000000000000000000000000000000000000000000000000000000600052604160045260246000fd5b7f546869732070726f64756374206973206f7574206f662073746f636b00000000600082015250565b6000612d5a601c83612a15565b9150612d6582612d24565b602082019050919050565b60006020820190508181036000830152612d8981612d4d565b9050919050565b7f546869732070726f6475637420646f6573206e6f742065786973740000000000600082015250565b6000612dc6601b83612a15565b9150612dd182612d90565b602082019050919050565b60006020820190508181036000830152612df581612db9565b9050919050565b7f596f75206861766520616c72656164792070757263686173656420746869732060008201527f70726f6475637400000000000000000000000000000000000000000000000000602082015250565b6000612e58602783612a15565b9150612e6382612dfc565b604082019050919050565b60006020820190508181036000830152612e8781612e4b565b9050919050565b7f596f75206e65656420746f2073656e6420312077656920746f2062757920746860008201527f652070726f647563740000000000000000000000000000000000000000000000602082015250565b6000612eea602983612a15565b9150612ef582612e8e565b604082019050919050565b60006020820190508181036000830152612f1981612edd565b9050919050565b7f4f6e6c792061646d696e20686173207468697320726967687473000000000000600082015250565b6000612f56601a83612a15565b9150612f6182612f20565b602082019050919050565b60006020820190508181036000830152612f8581612f49565b9050919050565b6000604082019050612fa160008301856126ad565b612fae60208301846126ad565b9392505050565b600081519050919050565b60005b83811015612fde578082015181840152602081019050612fc3565b60008484015250505050565b6000601f19601f8301169050919050565b600061300682612fb5565b6130108185612a15565b9350613020818560208601612fc0565b61302981612fea565b840191505092915050565b6000606082019050818103600083015261304e8186612ffb565b905061305d60208301856126ad565b818103604083015261306f8184612ffb565b9050949350505050565b600060808201905081810360008301526130938187612ffb565b90506130a260208301866126ad565b81810360408301526130b48185612ffb565b90506130c360608301846126ad565b9594505050505056fea2646970667358221220a0a30be3c080f119c4e3f81d6dca5541dd5926de70ca14cc09199b346306998864736f6c63430008120033",
  "linkReferences": {},
  "deployedLinkReferences": {}
}